{
  "_format": "hh-sol-artifact-1",
  "contractName": "NFTMarketplace",
  "sourceName": "contracts/NFTMarketplace.sol",
  "abi": [
    {
      "inputs": [],
      "stateMutability": "nonpayable",
      "type": "constructor"
    },
    {
      "anonymous": false,
      "inputs": [
        {
          "indexed": true,
          "internalType": "address",
          "name": "owner",
          "type": "address"
        },
        {
          "indexed": true,
          "internalType": "address",
          "name": "approved",
          "type": "address"
        },
        {
          "indexed": true,
          "internalType": "uint256",
          "name": "tokenId",
          "type": "uint256"
        }
      ],
      "name": "Approval",
      "type": "event"
    },
    {
      "anonymous": false,
      "inputs": [
        {
          "indexed": true,
          "internalType": "address",
          "name": "owner",
          "type": "address"
        },
        {
          "indexed": true,
          "internalType": "address",
          "name": "operator",
          "type": "address"
        },
        {
          "indexed": false,
          "internalType": "bool",
          "name": "approved",
          "type": "bool"
        }
      ],
      "name": "ApprovalForAll",
      "type": "event"
    },
    {
      "anonymous": false,
      "inputs": [
        {
          "indexed": false,
          "internalType": "uint256",
          "name": "listingPrice",
          "type": "uint256"
        }
      ],
      "name": "ListingPriceUpdated",
      "type": "event"
    },
    {
      "anonymous": false,
      "inputs": [
        {
          "indexed": true,
          "internalType": "uint256",
          "name": "tokenId",
          "type": "uint256"
        },
        {
          "indexed": false,
          "internalType": "address",
          "name": "seller",
          "type": "address"
        },
        {
          "indexed": false,
          "internalType": "address",
          "name": "owner",
          "type": "address"
        },
        {
          "indexed": false,
          "internalType": "uint256",
          "name": "price",
          "type": "uint256"
        },
        {
          "indexed": false,
          "internalType": "bool",
          "name": "sold",
          "type": "bool"
        }
      ],
      "name": "MarketItemCreated",
      "type": "event"
    },
    {
      "anonymous": false,
      "inputs": [
        {
          "indexed": true,
          "internalType": "uint256",
          "name": "tokenId",
          "type": "uint256"
        },
        {
          "indexed": false,
          "internalType": "uint256",
          "name": "price",
          "type": "uint256"
        }
      ],
      "name": "PriceChanged",
      "type": "event"
    },
    {
      "anonymous": false,
      "inputs": [
        {
          "indexed": true,
          "internalType": "address",
          "name": "from",
          "type": "address"
        },
        {
          "indexed": true,
          "internalType": "address",
          "name": "to",
          "type": "address"
        },
        {
          "indexed": true,
          "internalType": "uint256",
          "name": "tokenId",
          "type": "uint256"
        }
      ],
      "name": "Transfer",
      "type": "event"
    },
    {
      "inputs": [
        {
          "internalType": "address",
          "name": "to",
          "type": "address"
        },
        {
          "internalType": "uint256",
          "name": "tokenId",
          "type": "uint256"
        }
      ],
      "name": "approve",
      "outputs": [],
      "stateMutability": "nonpayable",
      "type": "function"
    },
    {
      "inputs": [
        {
          "internalType": "address",
          "name": "owner",
          "type": "address"
        }
      ],
      "name": "balanceOf",
      "outputs": [
        {
          "internalType": "uint256",
          "name": "",
          "type": "uint256"
        }
      ],
      "stateMutability": "view",
      "type": "function"
    },
    {
      "inputs": [
        {
          "internalType": "uint256",
          "name": "tokenId",
          "type": "uint256"
        },
        {
          "internalType": "uint256",
          "name": "price",
          "type": "uint256"
        }
      ],
      "name": "changePrice",
      "outputs": [
        {
          "internalType": "bool",
          "name": "",
          "type": "bool"
        }
      ],
      "stateMutability": "nonpayable",
      "type": "function"
    },
    {
      "inputs": [
        {
          "internalType": "uint256",
          "name": "tokenId",
          "type": "uint256"
        }
      ],
      "name": "createMarketSale",
      "outputs": [],
      "stateMutability": "payable",
      "type": "function"
    },
    {
      "inputs": [],
      "name": "fetchItemsListed",
      "outputs": [
        {
          "components": [
            {
              "internalType": "uint256",
              "name": "tokenId",
              "type": "uint256"
            },
            {
              "internalType": "address payable",
              "name": "seller",
              "type": "address"
            },
            {
              "internalType": "address payable",
              "name": "owner",
              "type": "address"
            },
            {
              "internalType": "uint256",
              "name": "price",
              "type": "uint256"
            },
            {
              "internalType": "bool",
              "name": "sold",
              "type": "bool"
            }
          ],
          "internalType": "struct NFTMarketplace.MarketItem[]",
          "name": "",
          "type": "tuple[]"
        }
      ],
      "stateMutability": "view",
      "type": "function"
    },
    {
      "inputs": [],
      "name": "fetchMarketItems",
      "outputs": [
        {
          "components": [
            {
              "internalType": "uint256",
              "name": "tokenId",
              "type": "uint256"
            },
            {
              "internalType": "address payable",
              "name": "seller",
              "type": "address"
            },
            {
              "internalType": "address payable",
              "name": "owner",
              "type": "address"
            },
            {
              "internalType": "uint256",
              "name": "price",
              "type": "uint256"
            },
            {
              "internalType": "bool",
              "name": "sold",
              "type": "bool"
            }
          ],
          "internalType": "struct NFTMarketplace.MarketItem[]",
          "name": "",
          "type": "tuple[]"
        }
      ],
      "stateMutability": "view",
      "type": "function"
    },
    {
      "inputs": [
        {
          "internalType": "uint256",
          "name": "tokenId",
          "type": "uint256"
        }
      ],
      "name": "getApproved",
      "outputs": [
        {
          "internalType": "address",
          "name": "",
          "type": "address"
        }
      ],
      "stateMutability": "view",
      "type": "function"
    },
    {
      "inputs": [],
      "name": "getListingPrice",
      "outputs": [
        {
          "internalType": "uint256",
          "name": "",
          "type": "uint256"
        }
      ],
      "stateMutability": "view",
      "type": "function"
    },
    {
      "inputs": [
        {
          "internalType": "address",
          "name": "owner",
          "type": "address"
        },
        {
          "internalType": "address",
          "name": "operator",
          "type": "address"
        }
      ],
      "name": "isApprovedForAll",
      "outputs": [
        {
          "internalType": "bool",
          "name": "",
          "type": "bool"
        }
      ],
      "stateMutability": "view",
      "type": "function"
    },
    {
      "inputs": [
        {
          "internalType": "uint256",
          "name": "tokenId",
          "type": "uint256"
        },
        {
          "internalType": "uint256",
          "name": "price",
          "type": "uint256"
        }
      ],
      "name": "listToken",
      "outputs": [
        {
          "internalType": "bool",
          "name": "",
          "type": "bool"
        }
      ],
      "stateMutability": "payable",
      "type": "function"
    },
    {
      "inputs": [
        {
          "internalType": "string",
          "name": "tokenURI",
          "type": "string"
        }
      ],
      "name": "mintToken",
      "outputs": [
        {
          "internalType": "uint256",
          "name": "",
          "type": "uint256"
        }
      ],
      "stateMutability": "nonpayable",
      "type": "function"
    },
    {
      "inputs": [],
      "name": "name",
      "outputs": [
        {
          "internalType": "string",
          "name": "",
          "type": "string"
        }
      ],
      "stateMutability": "view",
      "type": "function"
    },
    {
      "inputs": [
        {
          "internalType": "uint256",
          "name": "tokenId",
          "type": "uint256"
        }
      ],
      "name": "ownerOf",
      "outputs": [
        {
          "internalType": "address",
          "name": "",
          "type": "address"
        }
      ],
      "stateMutability": "view",
      "type": "function"
    },
    {
      "inputs": [
        {
          "internalType": "address",
          "name": "from",
          "type": "address"
        },
        {
          "internalType": "address",
          "name": "to",
          "type": "address"
        },
        {
          "internalType": "uint256",
          "name": "tokenId",
          "type": "uint256"
        }
      ],
      "name": "safeTransferFrom",
      "outputs": [],
      "stateMutability": "nonpayable",
      "type": "function"
    },
    {
      "inputs": [
        {
          "internalType": "address",
          "name": "from",
          "type": "address"
        },
        {
          "internalType": "address",
          "name": "to",
          "type": "address"
        },
        {
          "internalType": "uint256",
          "name": "tokenId",
          "type": "uint256"
        },
        {
          "internalType": "bytes",
          "name": "data",
          "type": "bytes"
        }
      ],
      "name": "safeTransferFrom",
      "outputs": [],
      "stateMutability": "nonpayable",
      "type": "function"
    },
    {
      "inputs": [
        {
          "internalType": "address",
          "name": "operator",
          "type": "address"
        },
        {
          "internalType": "bool",
          "name": "approved",
          "type": "bool"
        }
      ],
      "name": "setApprovalForAll",
      "outputs": [],
      "stateMutability": "nonpayable",
      "type": "function"
    },
    {
      "inputs": [
        {
          "internalType": "bytes4",
          "name": "interfaceId",
          "type": "bytes4"
        }
      ],
      "name": "supportsInterface",
      "outputs": [
        {
          "internalType": "bool",
          "name": "",
          "type": "bool"
        }
      ],
      "stateMutability": "view",
      "type": "function"
    },
    {
      "inputs": [],
      "name": "symbol",
      "outputs": [
        {
          "internalType": "string",
          "name": "",
          "type": "string"
        }
      ],
      "stateMutability": "view",
      "type": "function"
    },
    {
      "inputs": [
        {
          "internalType": "uint256",
          "name": "tokenId",
          "type": "uint256"
        }
      ],
      "name": "tokenURI",
      "outputs": [
        {
          "internalType": "string",
          "name": "",
          "type": "string"
        }
      ],
      "stateMutability": "view",
      "type": "function"
    },
    {
      "inputs": [
        {
          "internalType": "address",
          "name": "from",
          "type": "address"
        },
        {
          "internalType": "address",
          "name": "to",
          "type": "address"
        },
        {
          "internalType": "uint256",
          "name": "tokenId",
          "type": "uint256"
        }
      ],
      "name": "transferFrom",
      "outputs": [],
      "stateMutability": "nonpayable",
      "type": "function"
    },
    {
      "inputs": [
        {
          "internalType": "uint256",
          "name": "tokenId",
          "type": "uint256"
        }
      ],
      "name": "unlistToken",
      "outputs": [
        {
          "internalType": "bool",
          "name": "",
          "type": "bool"
        }
      ],
      "stateMutability": "nonpayable",
      "type": "function"
    },
    {
      "inputs": [
        {
          "internalType": "uint256",
          "name": "_listingPrice",
          "type": "uint256"
        }
      ],
      "name": "updateListingPrice",
      "outputs": [],
      "stateMutability": "payable",
      "type": "function"
    }
  ],
  "bytecode": "0x60806040526658d15e176280006009553480156200001c57600080fd5b506040518060400160405280600a81526020017f4b756e20546f6b656e73000000000000000000000000000000000000000000008152506040518060400160405280600381526020017f4b756e000000000000000000000000000000000000000000000000000000000081525081600090816200009a919062000370565b508060019081620000ac919062000370565b50505033600a60006101000a81548173ffffffffffffffffffffffffffffffffffffffff021916908373ffffffffffffffffffffffffffffffffffffffff16021790555062000457565b600081519050919050565b7f4e487b7100000000000000000000000000000000000000000000000000000000600052604160045260246000fd5b7f4e487b7100000000000000000000000000000000000000000000000000000000600052602260045260246000fd5b600060028204905060018216806200017857607f821691505b6020821081036200018e576200018d62000130565b5b50919050565b60008190508160005260206000209050919050565b60006020601f8301049050919050565b600082821b905092915050565b600060088302620001f87fffffffffffffffffffffffffffffffffffffffffffffffffffffffffffffffff82620001b9565b620002048683620001b9565b95508019841693508086168417925050509392505050565b6000819050919050565b6000819050919050565b6000620002516200024b62000245846200021c565b62000226565b6200021c565b9050919050565b6000819050919050565b6200026d8362000230565b620002856200027c8262000258565b848454620001c6565b825550505050565b600090565b6200029c6200028d565b620002a981848462000262565b505050565b5b81811015620002d157620002c560008262000292565b600181019050620002af565b5050565b601f8211156200032057620002ea8162000194565b620002f584620001a9565b8101602085101562000305578190505b6200031d6200031485620001a9565b830182620002ae565b50505b505050565b600082821c905092915050565b6000620003456000198460080262000325565b1980831691505092915050565b600062000360838362000332565b9150826002028217905092915050565b6200037b82620000f6565b67ffffffffffffffff81111562000397576200039662000101565b5b620003a382546200015f565b620003b0828285620002d5565b600060209050601f831160018114620003e85760008415620003d3578287015190505b620003df858262000352565b8655506200044f565b601f198416620003f88662000194565b60005b828110156200042257848901518255600182019150602085019450602081019050620003fb565b868310156200044257848901516200043e601f89168262000332565b8355505b6001600288020188555050505b505050505050565b61447680620004676000396000f3fe6080604052600436106101355760003560e01c806370a08231116100ab578063ae677aa31161006f578063ae677aa314610453578063b3de019c1461046f578063b88d4fde146104ac578063be9af536146104d5578063c87b56dd146104f1578063e985e9c51461052e57610135565b806370a082311461035557806375c1631d1461039257806395d89b41146103c2578063a22cb465146103ed578063ad3a358c1461041657610135565b806312e85585116100fd57806312e855851461023357806323b872dd1461025e57806333eba49a1461028757806342842e0e146102c457806345f8fa80146102ed5780636352211e1461031857610135565b806301ffc9a71461013a57806306fdde0314610177578063081812fc146101a2578063095ea7b3146101df5780630f08efe014610208575b600080fd5b34801561014657600080fd5b50610161600480360381019061015c9190612c63565b61056b565b60405161016e9190612cab565b60405180910390f35b34801561018357600080fd5b5061018c61064d565b6040516101999190612d56565b60405180910390f35b3480156101ae57600080fd5b506101c960048036038101906101c49190612dae565b6106df565b6040516101d69190612e1c565b60405180910390f35b3480156101eb57600080fd5b5061020660048036038101906102019190612e63565b610725565b005b34801561021457600080fd5b5061021d61083c565b60405161022a9190612ff9565b60405180910390f35b34801561023f57600080fd5b50610248610a90565b604051610255919061302a565b60405180910390f35b34801561026a57600080fd5b5061028560048036038101906102809190613045565b610a9a565b005b34801561029357600080fd5b506102ae60048036038101906102a991906131cd565b610afa565b6040516102bb919061302a565b60405180910390f35b3480156102d057600080fd5b506102eb60048036038101906102e69190613045565b610b31565b005b3480156102f957600080fd5b50610302610b51565b60405161030f9190612ff9565b60405180910390f35b34801561032457600080fd5b5061033f600480360381019061033a9190612dae565b610e3d565b60405161034c9190612e1c565b60405180910390f35b34801561036157600080fd5b5061037c60048036038101906103779190613216565b610ec3565b604051610389919061302a565b60405180910390f35b6103ac60048036038101906103a79190613243565b610f7a565b6040516103b99190612cab565b60405180910390f35b3480156103ce57600080fd5b506103d7611006565b6040516103e49190612d56565b60405180910390f35b3480156103f957600080fd5b50610414600480360381019061040f91906132af565b611098565b005b34801561042257600080fd5b5061043d60048036038101906104389190612dae565b6110ae565b60405161044a9190612cab565b60405180910390f35b61046d60048036038101906104689190612dae565b6112f0565b005b34801561047b57600080fd5b5061049660048036038101906104919190613243565b6113c3565b6040516104a39190612cab565b60405180910390f35b3480156104b857600080fd5b506104d360048036038101906104ce9190613390565b61156a565b005b6104ef60048036038101906104ea9190612dae565b6115cc565b005b3480156104fd57600080fd5b5061051860048036038101906105139190612dae565b61180a565b6040516105259190612d56565b60405180910390f35b34801561053a57600080fd5b5061055560048036038101906105509190613413565b61191c565b6040516105629190612cab565b60405180910390f35b60007f80ac58cd000000000000000000000000000000000000000000000000000000007bffffffffffffffffffffffffffffffffffffffffffffffffffffffff1916827bffffffffffffffffffffffffffffffffffffffffffffffffffffffff1916148061063657507f5b5e139f000000000000000000000000000000000000000000000000000000007bffffffffffffffffffffffffffffffffffffffffffffffffffffffff1916827bffffffffffffffffffffffffffffffffffffffffffffffffffffffff1916145b806106465750610645826119b0565b5b9050919050565b60606000805461065c90613482565b80601f016020809104026020016040519081016040528092919081815260200182805461068890613482565b80156106d55780601f106106aa576101008083540402835291602001916106d5565b820191906000526020600020905b8154815290600101906020018083116106b857829003601f168201915b5050505050905090565b60006106ea82611a1a565b6004600083815260200190815260200160002060009054906101000a900473ffffffffffffffffffffffffffffffffffffffff169050919050565b600061073082610e3d565b90508073ffffffffffffffffffffffffffffffffffffffff168373ffffffffffffffffffffffffffffffffffffffff16036107a0576040517f08c379a000000000000000000000000000000000000000000000000000000000815260040161079790613525565b60405180910390fd5b8073ffffffffffffffffffffffffffffffffffffffff166107bf611a65565b73ffffffffffffffffffffffffffffffffffffffff1614806107ee57506107ed816107e8611a65565b61191c565b5b61082d576040517f08c379a0000000000000000000000000000000000000000000000000000000008152600401610824906135b7565b60405180910390fd5b6108378383611a6d565b505050565b6060600061084a6007611b26565b905060006108586008611b26565b90506000808267ffffffffffffffff811115610877576108766130a2565b5b6040519080825280602002602001820160405280156108b057816020015b61089d612b9a565b8152602001906001900390816108955790505b50905060005b84811015610a85573073ffffffffffffffffffffffffffffffffffffffff16600b60006001846108e69190613606565b815260200190815260200160002060020160009054906101000a900473ffffffffffffffffffffffffffffffffffffffff1673ffffffffffffffffffffffffffffffffffffffff1603610a725760006001826109429190613606565b90506000600b60008381526020019081526020016000209050806040518060a0016040529081600082015481526020016001820160009054906101000a900473ffffffffffffffffffffffffffffffffffffffff1673ffffffffffffffffffffffffffffffffffffffff1673ffffffffffffffffffffffffffffffffffffffff1681526020016002820160009054906101000a900473ffffffffffffffffffffffffffffffffffffffff1673ffffffffffffffffffffffffffffffffffffffff1673ffffffffffffffffffffffffffffffffffffffff168152602001600382015481526020016004820160009054906101000a900460ff161515151581525050848681518110610a5557610a5461363a565b5b6020026020010181905250600185610a6d9190613606565b945050505b8080610a7d90613669565b9150506108b6565b508094505050505090565b6000600954905090565b610aab610aa5611a65565b82611b34565b610aea576040517f08c379a0000000000000000000000000000000000000000000000000000000008152600401610ae190613723565b60405180910390fd5b610af5838383611bc9565b505050565b6000610b066007611ec2565b6000610b126007611b26565b9050610b1e3382611ed8565b610b2881846120f5565b80915050919050565b610b4c8383836040518060200160405280600081525061156a565b505050565b60606000610b5f6007611b26565b905060008060005b83811015610c07573373ffffffffffffffffffffffffffffffffffffffff16600b6000600184610b979190613606565b815260200190815260200160002060010160009054906101000a900473ffffffffffffffffffffffffffffffffffffffff1673ffffffffffffffffffffffffffffffffffffffff1603610bf457600183610bf19190613606565b92505b8080610bff90613669565b915050610b67565b5060008267ffffffffffffffff811115610c2457610c236130a2565b5b604051908082528060200260200182016040528015610c5d57816020015b610c4a612b9a565b815260200190600190039081610c425790505b50905060005b84811015610e32573373ffffffffffffffffffffffffffffffffffffffff16600b6000600184610c939190613606565b815260200190815260200160002060010160009054906101000a900473ffffffffffffffffffffffffffffffffffffffff1673ffffffffffffffffffffffffffffffffffffffff1603610e1f576000600182610cef9190613606565b90506000600b60008381526020019081526020016000209050806040518060a0016040529081600082015481526020016001820160009054906101000a900473ffffffffffffffffffffffffffffffffffffffff1673ffffffffffffffffffffffffffffffffffffffff1673ffffffffffffffffffffffffffffffffffffffff1681526020016002820160009054906101000a900473ffffffffffffffffffffffffffffffffffffffff1673ffffffffffffffffffffffffffffffffffffffff1673ffffffffffffffffffffffffffffffffffffffff168152602001600382015481526020016004820160009054906101000a900460ff161515151581525050848681518110610e0257610e0161363a565b5b6020026020010181905250600185610e1a9190613606565b945050505b8080610e2a90613669565b915050610c63565b508094505050505090565b600080610e4983612162565b9050600073ffffffffffffffffffffffffffffffffffffffff168173ffffffffffffffffffffffffffffffffffffffff1603610eba576040517f08c379a0000000000000000000000000000000000000000000000000000000008152600401610eb19061378f565b60405180910390fd5b80915050919050565b60008073ffffffffffffffffffffffffffffffffffffffff168273ffffffffffffffffffffffffffffffffffffffff1603610f33576040517f08c379a0000000000000000000000000000000000000000000000000000000008152600401610f2a90613821565b60405180910390fd5b600360008373ffffffffffffffffffffffffffffffffffffffff1673ffffffffffffffffffffffffffffffffffffffff168152602001908152602001600020549050919050565b60003373ffffffffffffffffffffffffffffffffffffffff16610f9c84612162565b73ffffffffffffffffffffffffffffffffffffffff1614610ff2576040517f08c379a0000000000000000000000000000000000000000000000000000000008152600401610fe99061388d565b60405180910390fd5b610ffc838361219f565b6001905092915050565b60606001805461101590613482565b80601f016020809104026020016040519081016040528092919081815260200182805461104190613482565b801561108e5780601f106110635761010080835404028352916020019161108e565b820191906000526020600020905b81548152906001019060200180831161107157829003601f168201915b5050505050905090565b6110aa6110a3611a65565b83836124df565b5050565b60003373ffffffffffffffffffffffffffffffffffffffff16600b600084815260200190815260200160002060010160009054906101000a900473ffffffffffffffffffffffffffffffffffffffff1673ffffffffffffffffffffffffffffffffffffffff1614611154576040517f08c379a000000000000000000000000000000000000000000000000000000000815260040161114b906138f9565b60405180910390fd5b3073ffffffffffffffffffffffffffffffffffffffff16600b600084815260200190815260200160002060020160009054906101000a900473ffffffffffffffffffffffffffffffffffffffff1673ffffffffffffffffffffffffffffffffffffffff16146111f8576040517f08c379a00000000000000000000000000000000000000000000000000000000081526004016111ef90613965565b60405180910390fd5b6001600b600084815260200190815260200160002060040160006101000a81548160ff021916908315150217905550611231600861264b565b6000600b600084815260200190815260200160002060010160006101000a81548173ffffffffffffffffffffffffffffffffffffffff021916908373ffffffffffffffffffffffffffffffffffffffff16021790555033600b600084815260200190815260200160002060020160006101000a81548173ffffffffffffffffffffffffffffffffffffffff021916908373ffffffffffffffffffffffffffffffffffffffff1602179055506112e7303384611bc9565b60019050919050565b3373ffffffffffffffffffffffffffffffffffffffff16600a60009054906101000a900473ffffffffffffffffffffffffffffffffffffffff1673ffffffffffffffffffffffffffffffffffffffff1614611380576040517f08c379a0000000000000000000000000000000000000000000000000000000008152600401611377906139f7565b60405180910390fd5b806009819055507f661c8d2e494b21e778d6b19ffb42ca00ee63062be7f9eb28af0850e01a9cf2146009546040516113b8919061302a565b60405180910390a150565b60003373ffffffffffffffffffffffffffffffffffffffff16600b600085815260200190815260200160002060010160009054906101000a900473ffffffffffffffffffffffffffffffffffffffff1673ffffffffffffffffffffffffffffffffffffffff1614611469576040517f08c379a000000000000000000000000000000000000000000000000000000000815260040161146090613a63565b60405180910390fd5b3073ffffffffffffffffffffffffffffffffffffffff16600b600085815260200190815260200160002060020160009054906101000a900473ffffffffffffffffffffffffffffffffffffffff1673ffffffffffffffffffffffffffffffffffffffff161461150d576040517f08c379a000000000000000000000000000000000000000000000000000000000815260040161150490613965565b60405180910390fd5b81600b600085815260200190815260200160002060030181905550827f8aa4fa52648a6d15edce8a179c792c86f3719d0cc3c572cf90f91948f0f2cb6883604051611558919061302a565b60405180910390a26001905092915050565b61157b611575611a65565b83611b34565b6115ba576040517f08c379a00000000000000000000000000000000000000000000000000000000081526004016115b190613723565b60405180910390fd5b6115c6848484846126a7565b50505050565b6000600b60008381526020019081526020016000206003015490506000600b600084815260200190815260200160002060010160009054906101000a900473ffffffffffffffffffffffffffffffffffffffff169050813414611664576040517f08c379a000000000000000000000000000000000000000000000000000000000815260040161165b90613af5565b60405180910390fd5b33600b600085815260200190815260200160002060020160006101000a81548173ffffffffffffffffffffffffffffffffffffffff021916908373ffffffffffffffffffffffffffffffffffffffff1602179055506001600b600085815260200190815260200160002060040160006101000a81548160ff0219169083151502179055506000600b600085815260200190815260200160002060010160006101000a81548173ffffffffffffffffffffffffffffffffffffffff021916908373ffffffffffffffffffffffffffffffffffffffff160217905550611748600861264b565b611753303385611bc9565b600a60009054906101000a900473ffffffffffffffffffffffffffffffffffffffff1673ffffffffffffffffffffffffffffffffffffffff166108fc6009549081150290604051600060405180830381858888f193505050501580156117bd573d6000803e3d6000fd5b508073ffffffffffffffffffffffffffffffffffffffff166108fc349081150290604051600060405180830381858888f19350505050158015611804573d6000803e3d6000fd5b50505050565b606061181582611a1a565b600060066000848152602001908152602001600020805461183590613482565b80601f016020809104026020016040519081016040528092919081815260200182805461186190613482565b80156118ae5780601f10611883576101008083540402835291602001916118ae565b820191906000526020600020905b81548152906001019060200180831161189157829003601f168201915b5050505050905060006118bf612703565b905060008151036118d4578192505050611917565b6000825111156119095780826040516020016118f1929190613b51565b60405160208183030381529060405292505050611917565b6119128461271a565b925050505b919050565b6000600560008473ffffffffffffffffffffffffffffffffffffffff1673ffffffffffffffffffffffffffffffffffffffff16815260200190815260200160002060008373ffffffffffffffffffffffffffffffffffffffff1673ffffffffffffffffffffffffffffffffffffffff16815260200190815260200160002060009054906101000a900460ff16905092915050565b60007f01ffc9a7000000000000000000000000000000000000000000000000000000007bffffffffffffffffffffffffffffffffffffffffffffffffffffffff1916827bffffffffffffffffffffffffffffffffffffffffffffffffffffffff1916149050919050565b611a2381612782565b611a62576040517f08c379a0000000000000000000000000000000000000000000000000000000008152600401611a599061378f565b60405180910390fd5b50565b600033905090565b816004600083815260200190815260200160002060006101000a81548173ffffffffffffffffffffffffffffffffffffffff021916908373ffffffffffffffffffffffffffffffffffffffff160217905550808273ffffffffffffffffffffffffffffffffffffffff16611ae083610e3d565b73ffffffffffffffffffffffffffffffffffffffff167f8c5be1e5ebec7d5bd14f71427d1e84f3dd0314c0f7b2291e5b200ac8c7c3b92560405160405180910390a45050565b600081600001549050919050565b600080611b4083610e3d565b90508073ffffffffffffffffffffffffffffffffffffffff168473ffffffffffffffffffffffffffffffffffffffff161480611b825750611b81818561191c565b5b80611bc057508373ffffffffffffffffffffffffffffffffffffffff16611ba8846106df565b73ffffffffffffffffffffffffffffffffffffffff16145b91505092915050565b8273ffffffffffffffffffffffffffffffffffffffff16611be982610e3d565b73ffffffffffffffffffffffffffffffffffffffff1614611c3f576040517f08c379a0000000000000000000000000000000000000000000000000000000008152600401611c3690613be7565b60405180910390fd5b600073ffffffffffffffffffffffffffffffffffffffff168273ffffffffffffffffffffffffffffffffffffffff1603611cae576040517f08c379a0000000000000000000000000000000000000000000000000000000008152600401611ca590613c79565b60405180910390fd5b611cbb83838360016127c3565b8273ffffffffffffffffffffffffffffffffffffffff16611cdb82610e3d565b73ffffffffffffffffffffffffffffffffffffffff1614611d31576040517f08c379a0000000000000000000000000000000000000000000000000000000008152600401611d2890613be7565b60405180910390fd5b6004600082815260200190815260200160002060006101000a81549073ffffffffffffffffffffffffffffffffffffffff02191690556001600360008573ffffffffffffffffffffffffffffffffffffffff1673ffffffffffffffffffffffffffffffffffffffff168152602001908152602001600020600082825403925050819055506001600360008473ffffffffffffffffffffffffffffffffffffffff1673ffffffffffffffffffffffffffffffffffffffff16815260200190815260200160002060008282540192505081905550816002600083815260200190815260200160002060006101000a81548173ffffffffffffffffffffffffffffffffffffffff021916908373ffffffffffffffffffffffffffffffffffffffff160217905550808273ffffffffffffffffffffffffffffffffffffffff168473ffffffffffffffffffffffffffffffffffffffff167fddf252ad1be2c89b69c2b068fc378daa952ba7f163c4a11628f55a4df523b3ef60405160405180910390a4611ebd83838360016127c9565b505050565b6001816000016000828254019250508190555050565b600073ffffffffffffffffffffffffffffffffffffffff168273ffffffffffffffffffffffffffffffffffffffff1603611f47576040517f08c379a0000000000000000000000000000000000000000000000000000000008152600401611f3e90613ce5565b60405180910390fd5b611f5081612782565b15611f90576040517f08c379a0000000000000000000000000000000000000000000000000000000008152600401611f8790613d51565b60405180910390fd5b611f9e6000838360016127c3565b611fa781612782565b15611fe7576040517f08c379a0000000000000000000000000000000000000000000000000000000008152600401611fde90613d51565b60405180910390fd5b6001600360008473ffffffffffffffffffffffffffffffffffffffff1673ffffffffffffffffffffffffffffffffffffffff16815260200190815260200160002060008282540192505081905550816002600083815260200190815260200160002060006101000a81548173ffffffffffffffffffffffffffffffffffffffff021916908373ffffffffffffffffffffffffffffffffffffffff160217905550808273ffffffffffffffffffffffffffffffffffffffff16600073ffffffffffffffffffffffffffffffffffffffff167fddf252ad1be2c89b69c2b068fc378daa952ba7f163c4a11628f55a4df523b3ef60405160405180910390a46120f16000838360016127c9565b5050565b6120fe82612782565b61213d576040517f08c379a000000000000000000000000000000000000000000000000000000000815260040161213490613de3565b60405180910390fd5b8060066000848152602001908152602001600020908161215d9190613faf565b505050565b60006002600083815260200190815260200160002060009054906101000a900473ffffffffffffffffffffffffffffffffffffffff169050919050565b600081116121e2576040517f08c379a00000000000000000000000000000000000000000000000000000000081526004016121d9906140cd565b60405180910390fd5b6009543414612226576040517f08c379a000000000000000000000000000000000000000000000000000000000815260040161221d9061415f565b60405180910390fd5b60011515600b600084815260200190815260200160002060040160009054906101000a900460ff16151503612358576000600b600084815260200190815260200160002060040160006101000a81548160ff02191690831515021790555080600b60008481526020019081526020016000206003018190555033600b600084815260200190815260200160002060010160006101000a81548173ffffffffffffffffffffffffffffffffffffffff021916908373ffffffffffffffffffffffffffffffffffffffff16021790555030600b600084815260200190815260200160002060020160006101000a81548173ffffffffffffffffffffffffffffffffffffffff021916908373ffffffffffffffffffffffffffffffffffffffff1602179055506123536008611ec2565b612491565b6040518060a001604052808381526020013373ffffffffffffffffffffffffffffffffffffffff1681526020013073ffffffffffffffffffffffffffffffffffffffff16815260200182815260200160001515815250600b60008481526020019081526020016000206000820151816000015560208201518160010160006101000a81548173ffffffffffffffffffffffffffffffffffffffff021916908373ffffffffffffffffffffffffffffffffffffffff16021790555060408201518160020160006101000a81548173ffffffffffffffffffffffffffffffffffffffff021916908373ffffffffffffffffffffffffffffffffffffffff1602179055506060820151816003015560808201518160040160006101000a81548160ff0219169083151502179055509050506124906008611ec2565b5b61249c333084611bc9565b817fb640004f1d14576d0c209e240cad0410e0d8c0c33a09375861fbadae2588a98d33308460006040516124d3949392919061417f565b60405180910390a25050565b8173ffffffffffffffffffffffffffffffffffffffff168373ffffffffffffffffffffffffffffffffffffffff160361254d576040517f08c379a000000000000000000000000000000000000000000000000000000000815260040161254490614210565b60405180910390fd5b80600560008573ffffffffffffffffffffffffffffffffffffffff1673ffffffffffffffffffffffffffffffffffffffff16815260200190815260200160002060008473ffffffffffffffffffffffffffffffffffffffff1673ffffffffffffffffffffffffffffffffffffffff16815260200190815260200160002060006101000a81548160ff0219169083151502179055508173ffffffffffffffffffffffffffffffffffffffff168373ffffffffffffffffffffffffffffffffffffffff167f17307eab39ab6107e8899845ad3d59bd9653f200f220920489ca2b5937696c318360405161263e9190612cab565b60405180910390a3505050565b60008160000154905060008111612697576040517f08c379a000000000000000000000000000000000000000000000000000000000815260040161268e9061427c565b60405180910390fd5b6001810382600001819055505050565b6126b2848484611bc9565b6126be848484846127cf565b6126fd576040517f08c379a00000000000000000000000000000000000000000000000000000000081526004016126f49061430e565b60405180910390fd5b50505050565b606060405180602001604052806000815250905090565b606061272582611a1a565b600061272f612703565b9050600081511161274f576040518060200160405280600081525061277a565b8061275984612956565b60405160200161276a929190613b51565b6040516020818303038152906040525b915050919050565b60008073ffffffffffffffffffffffffffffffffffffffff166127a483612162565b73ffffffffffffffffffffffffffffffffffffffff1614159050919050565b50505050565b50505050565b60006127f08473ffffffffffffffffffffffffffffffffffffffff16612a24565b15612949578373ffffffffffffffffffffffffffffffffffffffff1663150b7a02612819611a65565b8786866040518563ffffffff1660e01b815260040161283b9493929190614383565b6020604051808303816000875af192505050801561287757506040513d601f19601f8201168201806040525081019061287491906143e4565b60015b6128f9573d80600081146128a7576040519150601f19603f3d011682016040523d82523d6000602084013e6128ac565b606091505b5060008151036128f1576040517f08c379a00000000000000000000000000000000000000000000000000000000081526004016128e89061430e565b60405180910390fd5b805181602001fd5b63150b7a0260e01b7bffffffffffffffffffffffffffffffffffffffffffffffffffffffff1916817bffffffffffffffffffffffffffffffffffffffffffffffffffffffff19161491505061294e565b600190505b949350505050565b60606000600161296584612a47565b01905060008167ffffffffffffffff811115612984576129836130a2565b5b6040519080825280601f01601f1916602001820160405280156129b65781602001600182028036833780820191505090505b509050600082602001820190505b600115612a19578080600190039150507f3031323334353637383961626364656600000000000000000000000000000000600a86061a8153600a8581612a0d57612a0c614411565b5b049450600085036129c4575b819350505050919050565b6000808273ffffffffffffffffffffffffffffffffffffffff163b119050919050565b600080600090507a184f03e93ff9f4daa797ed6e38ed64bf6a1f0100000000000000008310612aa5577a184f03e93ff9f4daa797ed6e38ed64bf6a1f0100000000000000008381612a9b57612a9a614411565b5b0492506040810190505b6d04ee2d6d415b85acef81000000008310612ae2576d04ee2d6d415b85acef81000000008381612ad857612ad7614411565b5b0492506020810190505b662386f26fc100008310612b1157662386f26fc100008381612b0757612b06614411565b5b0492506010810190505b6305f5e1008310612b3a576305f5e1008381612b3057612b2f614411565b5b0492506008810190505b6127108310612b5f576127108381612b5557612b54614411565b5b0492506004810190505b60648310612b825760648381612b7857612b77614411565b5b0492506002810190505b600a8310612b91576001810190505b80915050919050565b6040518060a0016040528060008152602001600073ffffffffffffffffffffffffffffffffffffffff168152602001600073ffffffffffffffffffffffffffffffffffffffff168152602001600081526020016000151581525090565b6000604051905090565b600080fd5b600080fd5b60007fffffffff0000000000000000000000000000000000000000000000000000000082169050919050565b612c4081612c0b565b8114612c4b57600080fd5b50565b600081359050612c5d81612c37565b92915050565b600060208284031215612c7957612c78612c01565b5b6000612c8784828501612c4e565b91505092915050565b60008115159050919050565b612ca581612c90565b82525050565b6000602082019050612cc06000830184612c9c565b92915050565b600081519050919050565b600082825260208201905092915050565b60005b83811015612d00578082015181840152602081019050612ce5565b60008484015250505050565b6000601f19601f8301169050919050565b6000612d2882612cc6565b612d328185612cd1565b9350612d42818560208601612ce2565b612d4b81612d0c565b840191505092915050565b60006020820190508181036000830152612d708184612d1d565b905092915050565b6000819050919050565b612d8b81612d78565b8114612d9657600080fd5b50565b600081359050612da881612d82565b92915050565b600060208284031215612dc457612dc3612c01565b5b6000612dd284828501612d99565b91505092915050565b600073ffffffffffffffffffffffffffffffffffffffff82169050919050565b6000612e0682612ddb565b9050919050565b612e1681612dfb565b82525050565b6000602082019050612e316000830184612e0d565b92915050565b612e4081612dfb565b8114612e4b57600080fd5b50565b600081359050612e5d81612e37565b92915050565b60008060408385031215612e7a57612e79612c01565b5b6000612e8885828601612e4e565b9250506020612e9985828601612d99565b9150509250929050565b600081519050919050565b600082825260208201905092915050565b6000819050602082019050919050565b612ed881612d78565b82525050565b6000612ee982612ddb565b9050919050565b612ef981612ede565b82525050565b612f0881612c90565b82525050565b60a082016000820151612f246000850182612ecf565b506020820151612f376020850182612ef0565b506040820151612f4a6040850182612ef0565b506060820151612f5d6060850182612ecf565b506080820151612f706080850182612eff565b50505050565b6000612f828383612f0e565b60a08301905092915050565b6000602082019050919050565b6000612fa682612ea3565b612fb08185612eae565b9350612fbb83612ebf565b8060005b83811015612fec578151612fd38882612f76565b9750612fde83612f8e565b925050600181019050612fbf565b5085935050505092915050565b600060208201905081810360008301526130138184612f9b565b905092915050565b61302481612d78565b82525050565b600060208201905061303f600083018461301b565b92915050565b60008060006060848603121561305e5761305d612c01565b5b600061306c86828701612e4e565b935050602061307d86828701612e4e565b925050604061308e86828701612d99565b9150509250925092565b600080fd5b600080fd5b7f4e487b7100000000000000000000000000000000000000000000000000000000600052604160045260246000fd5b6130da82612d0c565b810181811067ffffffffffffffff821117156130f9576130f86130a2565b5b80604052505050565b600061310c612bf7565b905061311882826130d1565b919050565b600067ffffffffffffffff821115613138576131376130a2565b5b61314182612d0c565b9050602081019050919050565b82818337600083830152505050565b600061317061316b8461311d565b613102565b90508281526020810184848401111561318c5761318b61309d565b5b61319784828561314e565b509392505050565b600082601f8301126131b4576131b3613098565b5b81356131c484826020860161315d565b91505092915050565b6000602082840312156131e3576131e2612c01565b5b600082013567ffffffffffffffff81111561320157613200612c06565b5b61320d8482850161319f565b91505092915050565b60006020828403121561322c5761322b612c01565b5b600061323a84828501612e4e565b91505092915050565b6000806040838503121561325a57613259612c01565b5b600061326885828601612d99565b925050602061327985828601612d99565b9150509250929050565b61328c81612c90565b811461329757600080fd5b50565b6000813590506132a981613283565b92915050565b600080604083850312156132c6576132c5612c01565b5b60006132d485828601612e4e565b92505060206132e58582860161329a565b9150509250929050565b600067ffffffffffffffff82111561330a576133096130a2565b5b61331382612d0c565b9050602081019050919050565b600061333361332e846132ef565b613102565b90508281526020810184848401111561334f5761334e61309d565b5b61335a84828561314e565b509392505050565b600082601f83011261337757613376613098565b5b8135613387848260208601613320565b91505092915050565b600080600080608085870312156133aa576133a9612c01565b5b60006133b887828801612e4e565b94505060206133c987828801612e4e565b93505060406133da87828801612d99565b925050606085013567ffffffffffffffff8111156133fb576133fa612c06565b5b61340787828801613362565b91505092959194509250565b6000806040838503121561342a57613429612c01565b5b600061343885828601612e4e565b925050602061344985828601612e4e565b9150509250929050565b7f4e487b7100000000000000000000000000000000000000000000000000000000600052602260045260246000fd5b6000600282049050600182168061349a57607f821691505b6020821081036134ad576134ac613453565b5b50919050565b7f4552433732313a20617070726f76616c20746f2063757272656e74206f776e6560008201527f7200000000000000000000000000000000000000000000000000000000000000602082015250565b600061350f602183612cd1565b915061351a826134b3565b604082019050919050565b6000602082019050818103600083015261353e81613502565b9050919050565b7f4552433732313a20617070726f76652063616c6c6572206973206e6f7420746f60008201527f6b656e206f776e6572206f7220617070726f76656420666f7220616c6c000000602082015250565b60006135a1603d83612cd1565b91506135ac82613545565b604082019050919050565b600060208201905081810360008301526135d081613594565b9050919050565b7f4e487b7100000000000000000000000000000000000000000000000000000000600052601160045260246000fd5b600061361182612d78565b915061361c83612d78565b9250828201905080821115613634576136336135d7565b5b92915050565b7f4e487b7100000000000000000000000000000000000000000000000000000000600052603260045260246000fd5b600061367482612d78565b91507fffffffffffffffffffffffffffffffffffffffffffffffffffffffffffffffff82036136a6576136a56135d7565b5b600182019050919050565b7f4552433732313a2063616c6c6572206973206e6f7420746f6b656e206f776e6560008201527f72206f7220617070726f76656400000000000000000000000000000000000000602082015250565b600061370d602d83612cd1565b9150613718826136b1565b604082019050919050565b6000602082019050818103600083015261373c81613700565b9050919050565b7f4552433732313a20696e76616c696420746f6b656e2049440000000000000000600082015250565b6000613779601883612cd1565b915061378482613743565b602082019050919050565b600060208201905081810360008301526137a88161376c565b9050919050565b7f4552433732313a2061646472657373207a65726f206973206e6f74206120766160008201527f6c6964206f776e65720000000000000000000000000000000000000000000000602082015250565b600061380b602983612cd1565b9150613816826137af565b604082019050919050565b6000602082019050818103600083015261383a816137fe565b9050919050565b7f4e6f74206f776e65720000000000000000000000000000000000000000000000600082015250565b6000613877600983612cd1565b915061388282613841565b602082019050919050565b600060208201905081810360008301526138a68161386a565b9050919050565b7f4e6f7473656c6c65720000000000000000000000000000000000000000000000600082015250565b60006138e3600983612cd1565b91506138ee826138ad565b602082019050919050565b60006020820190508181036000830152613912816138d6565b9050919050565b7f4e6f74206f6e206c697374000000000000000000000000000000000000000000600082015250565b600061394f600b83612cd1565b915061395a82613919565b602082019050919050565b6000602082019050818103600083015261397e81613942565b9050919050565b7f4f6e6c79206d61726b6574706c616365206f776e65722063616e20757064617460008201527f65206c697374696e672070726963652e00000000000000000000000000000000602082015250565b60006139e1603083612cd1565b91506139ec82613985565b604082019050919050565b60006020820190508181036000830152613a10816139d4565b9050919050565b7f4e6f742073656c6c657200000000000000000000000000000000000000000000600082015250565b6000613a4d600a83612cd1565b9150613a5882613a17565b602082019050919050565b60006020820190508181036000830152613a7c81613a40565b9050919050565b7f506c65617365207375626d6974207468652061736b696e67207072696365206960008201527f6e206f7264657220746f20636f6d706c65746520746865207075726368617365602082015250565b6000613adf604083612cd1565b9150613aea82613a83565b604082019050919050565b60006020820190508181036000830152613b0e81613ad2565b9050919050565b600081905092915050565b6000613b2b82612cc6565b613b358185613b15565b9350613b45818560208601612ce2565b80840191505092915050565b6000613b5d8285613b20565b9150613b698284613b20565b91508190509392505050565b7f4552433732313a207472616e736665722066726f6d20696e636f72726563742060008201527f6f776e6572000000000000000000000000000000000000000000000000000000602082015250565b6000613bd1602583612cd1565b9150613bdc82613b75565b604082019050919050565b60006020820190508181036000830152613c0081613bc4565b9050919050565b7f4552433732313a207472616e7366657220746f20746865207a65726f2061646460008201527f7265737300000000000000000000000000000000000000000000000000000000602082015250565b6000613c63602483612cd1565b9150613c6e82613c07565b604082019050919050565b60006020820190508181036000830152613c9281613c56565b9050919050565b7f4552433732313a206d696e7420746f20746865207a65726f2061646472657373600082015250565b6000613ccf602083612cd1565b9150613cda82613c99565b602082019050919050565b60006020820190508181036000830152613cfe81613cc2565b9050919050565b7f4552433732313a20746f6b656e20616c7265616479206d696e74656400000000600082015250565b6000613d3b601c83612cd1565b9150613d4682613d05565b602082019050919050565b60006020820190508181036000830152613d6a81613d2e565b9050919050565b7f45524337323155524953746f726167653a2055524920736574206f66206e6f6e60008201527f6578697374656e7420746f6b656e000000000000000000000000000000000000602082015250565b6000613dcd602e83612cd1565b9150613dd882613d71565b604082019050919050565b60006020820190508181036000830152613dfc81613dc0565b9050919050565b60008190508160005260206000209050919050565b60006020601f8301049050919050565b600082821b905092915050565b600060088302613e657fffffffffffffffffffffffffffffffffffffffffffffffffffffffffffffffff82613e28565b613e6f8683613e28565b95508019841693508086168417925050509392505050565b6000819050919050565b6000613eac613ea7613ea284612d78565b613e87565b612d78565b9050919050565b6000819050919050565b613ec683613e91565b613eda613ed282613eb3565b848454613e35565b825550505050565b600090565b613eef613ee2565b613efa818484613ebd565b505050565b5b81811015613f1e57613f13600082613ee7565b600181019050613f00565b5050565b601f821115613f6357613f3481613e03565b613f3d84613e18565b81016020851015613f4c578190505b613f60613f5885613e18565b830182613eff565b50505b505050565b600082821c905092915050565b6000613f8660001984600802613f68565b1980831691505092915050565b6000613f9f8383613f75565b9150826002028217905092915050565b613fb882612cc6565b67ffffffffffffffff811115613fd157613fd06130a2565b5b613fdb8254613482565b613fe6828285613f22565b600060209050601f8311600181146140195760008415614007578287015190505b6140118582613f93565b865550614079565b601f19841661402786613e03565b60005b8281101561404f5784890151825560018201915060208501945060208101905061402a565b8683101561406c5784890151614068601f891682613f75565b8355505b6001600288020188555050505b505050505050565b7f5072696365206d757374206265206174206c6561737420312077656900000000600082015250565b60006140b7601c83612cd1565b91506140c282614081565b602082019050919050565b600060208201905081810360008301526140e6816140aa565b9050919050565b7f5072696365206d75737420626520657175616c20746f206c697374696e67207060008201527f7269636500000000000000000000000000000000000000000000000000000000602082015250565b6000614149602483612cd1565b9150614154826140ed565b604082019050919050565b600060208201905081810360008301526141788161413c565b9050919050565b60006080820190506141946000830187612e0d565b6141a16020830186612e0d565b6141ae604083018561301b565b6141bb6060830184612c9c565b95945050505050565b7f4552433732313a20617070726f766520746f2063616c6c657200000000000000600082015250565b60006141fa601983612cd1565b9150614205826141c4565b602082019050919050565b60006020820190508181036000830152614229816141ed565b9050919050565b7f436f756e7465723a2064656372656d656e74206f766572666c6f770000000000600082015250565b6000614266601b83612cd1565b915061427182614230565b602082019050919050565b6000602082019050818103600083015261429581614259565b9050919050565b7f4552433732313a207472616e7366657220746f206e6f6e20455243373231526560008201527f63656976657220696d706c656d656e7465720000000000000000000000000000602082015250565b60006142f8603283612cd1565b91506143038261429c565b604082019050919050565b60006020820190508181036000830152614327816142eb565b9050919050565b600081519050919050565b600082825260208201905092915050565b60006143558261432e565b61435f8185614339565b935061436f818560208601612ce2565b61437881612d0c565b840191505092915050565b60006080820190506143986000830187612e0d565b6143a56020830186612e0d565b6143b2604083018561301b565b81810360608301526143c4818461434a565b905095945050505050565b6000815190506143de81612c37565b92915050565b6000602082840312156143fa576143f9612c01565b5b6000614408848285016143cf565b91505092915050565b7f4e487b7100000000000000000000000000000000000000000000000000000000600052601260045260246000fdfea2646970667358221220df9a223232ffdb83e757745646f8492ddff605e8b17ee3d7c39829d51f4d61dc64736f6c63430008120033",
  "linkReferences": {},
  "deployedLinkReferences": {}
}