{
  "_format": "hh-sol-artifact-1",
  "contractName": "NFTMarketplace",
  "sourceName": "contracts/NFTMarketplace.sol",
  "abi": [
    {
      "inputs": [],
      "stateMutability": "nonpayable",
      "type": "constructor"
    },
    {
      "anonymous": false,
      "inputs": [
        {
          "indexed": true,
          "internalType": "address",
          "name": "owner",
          "type": "address"
        },
        {
          "indexed": true,
          "internalType": "address",
          "name": "approved",
          "type": "address"
        },
        {
          "indexed": true,
          "internalType": "uint256",
          "name": "tokenId",
          "type": "uint256"
        }
      ],
      "name": "Approval",
      "type": "event"
    },
    {
      "anonymous": false,
      "inputs": [
        {
          "indexed": true,
          "internalType": "address",
          "name": "owner",
          "type": "address"
        },
        {
          "indexed": true,
          "internalType": "address",
          "name": "operator",
          "type": "address"
        },
        {
          "indexed": false,
          "internalType": "bool",
          "name": "approved",
          "type": "bool"
        }
      ],
      "name": "ApprovalForAll",
      "type": "event"
    },
    {
      "anonymous": false,
      "inputs": [
        {
          "indexed": true,
          "internalType": "uint256",
          "name": "tokenId",
          "type": "uint256"
        },
        {
          "indexed": false,
          "internalType": "address",
          "name": "seller",
          "type": "address"
        },
        {
          "indexed": false,
          "internalType": "address",
          "name": "owner",
          "type": "address"
        }
      ],
      "name": "Buy",
      "type": "event"
    },
    {
      "anonymous": false,
      "inputs": [
        {
          "indexed": false,
          "internalType": "uint256",
          "name": "listingPrice",
          "type": "uint256"
        }
      ],
      "name": "ListingPriceUpdated",
      "type": "event"
    },
    {
      "anonymous": false,
      "inputs": [
        {
          "indexed": true,
          "internalType": "uint256",
          "name": "tokenId",
          "type": "uint256"
        },
        {
          "indexed": false,
          "internalType": "address",
          "name": "seller",
          "type": "address"
        },
        {
          "indexed": false,
          "internalType": "address",
          "name": "owner",
          "type": "address"
        },
        {
          "indexed": false,
          "internalType": "uint256",
          "name": "price",
          "type": "uint256"
        },
        {
          "indexed": false,
          "internalType": "bool",
          "name": "sold",
          "type": "bool"
        }
      ],
      "name": "MarketItemCreated",
      "type": "event"
    },
    {
      "anonymous": false,
      "inputs": [
        {
          "indexed": true,
          "internalType": "uint256",
          "name": "tokenId",
          "type": "uint256"
        },
        {
          "indexed": true,
          "internalType": "uint256",
          "name": "price",
          "type": "uint256"
        }
      ],
      "name": "PriceChanged",
      "type": "event"
    },
    {
      "anonymous": false,
      "inputs": [
        {
          "indexed": true,
          "internalType": "address",
          "name": "from",
          "type": "address"
        },
        {
          "indexed": true,
          "internalType": "address",
          "name": "to",
          "type": "address"
        },
        {
          "indexed": true,
          "internalType": "uint256",
          "name": "tokenId",
          "type": "uint256"
        }
      ],
      "name": "Transfer",
      "type": "event"
    },
    {
      "anonymous": false,
      "inputs": [
        {
          "indexed": true,
          "internalType": "uint256",
          "name": "tokenId",
          "type": "uint256"
        },
        {
          "indexed": false,
          "internalType": "address",
          "name": "seller",
          "type": "address"
        },
        {
          "indexed": false,
          "internalType": "address",
          "name": "owner",
          "type": "address"
        }
      ],
      "name": "UnListToken",
      "type": "event"
    },
    {
      "inputs": [
        {
          "internalType": "address",
          "name": "to",
          "type": "address"
        },
        {
          "internalType": "uint256",
          "name": "tokenId",
          "type": "uint256"
        }
      ],
      "name": "approve",
      "outputs": [],
      "stateMutability": "nonpayable",
      "type": "function"
    },
    {
      "inputs": [
        {
          "internalType": "address",
          "name": "owner",
          "type": "address"
        }
      ],
      "name": "balanceOf",
      "outputs": [
        {
          "internalType": "uint256",
          "name": "",
          "type": "uint256"
        }
      ],
      "stateMutability": "view",
      "type": "function"
    },
    {
      "inputs": [
        {
          "internalType": "uint256",
          "name": "tokenId",
          "type": "uint256"
        },
        {
          "internalType": "uint256",
          "name": "price",
          "type": "uint256"
        }
      ],
      "name": "changePrice",
      "outputs": [
        {
          "internalType": "bool",
          "name": "",
          "type": "bool"
        }
      ],
      "stateMutability": "nonpayable",
      "type": "function"
    },
    {
      "inputs": [
        {
          "internalType": "uint256",
          "name": "tokenId",
          "type": "uint256"
        }
      ],
      "name": "createMarketSale",
      "outputs": [],
      "stateMutability": "payable",
      "type": "function"
    },
    {
      "inputs": [],
      "name": "fetchItemsListed",
      "outputs": [
        {
          "components": [
            {
              "internalType": "uint256",
              "name": "tokenId",
              "type": "uint256"
            },
            {
              "internalType": "address payable",
              "name": "seller",
              "type": "address"
            },
            {
              "internalType": "address payable",
              "name": "owner",
              "type": "address"
            },
            {
              "internalType": "uint256",
              "name": "price",
              "type": "uint256"
            },
            {
              "internalType": "bool",
              "name": "sold",
              "type": "bool"
            }
          ],
          "internalType": "struct NFTMarketplace.MarketItem[]",
          "name": "",
          "type": "tuple[]"
        }
      ],
      "stateMutability": "view",
      "type": "function"
    },
    {
      "inputs": [],
      "name": "fetchMarketItems",
      "outputs": [
        {
          "components": [
            {
              "internalType": "uint256",
              "name": "tokenId",
              "type": "uint256"
            },
            {
              "internalType": "address payable",
              "name": "seller",
              "type": "address"
            },
            {
              "internalType": "address payable",
              "name": "owner",
              "type": "address"
            },
            {
              "internalType": "uint256",
              "name": "price",
              "type": "uint256"
            },
            {
              "internalType": "bool",
              "name": "sold",
              "type": "bool"
            }
          ],
          "internalType": "struct NFTMarketplace.MarketItem[]",
          "name": "",
          "type": "tuple[]"
        }
      ],
      "stateMutability": "view",
      "type": "function"
    },
    {
      "inputs": [
        {
          "internalType": "uint256",
          "name": "tokenId",
          "type": "uint256"
        }
      ],
      "name": "getApproved",
      "outputs": [
        {
          "internalType": "address",
          "name": "",
          "type": "address"
        }
      ],
      "stateMutability": "view",
      "type": "function"
    },
    {
      "inputs": [],
      "name": "getListingPrice",
      "outputs": [
        {
          "internalType": "uint256",
          "name": "",
          "type": "uint256"
        }
      ],
      "stateMutability": "view",
      "type": "function"
    },
    {
      "inputs": [
        {
          "internalType": "address",
          "name": "owner",
          "type": "address"
        },
        {
          "internalType": "address",
          "name": "operator",
          "type": "address"
        }
      ],
      "name": "isApprovedForAll",
      "outputs": [
        {
          "internalType": "bool",
          "name": "",
          "type": "bool"
        }
      ],
      "stateMutability": "view",
      "type": "function"
    },
    {
      "inputs": [
        {
          "internalType": "uint256",
          "name": "tokenId",
          "type": "uint256"
        },
        {
          "internalType": "uint256",
          "name": "price",
          "type": "uint256"
        }
      ],
      "name": "listToken",
      "outputs": [
        {
          "internalType": "bool",
          "name": "",
          "type": "bool"
        }
      ],
      "stateMutability": "payable",
      "type": "function"
    },
    {
      "inputs": [
        {
          "internalType": "string",
          "name": "tokenURI",
          "type": "string"
        }
      ],
      "name": "mintToken",
      "outputs": [
        {
          "internalType": "uint256",
          "name": "",
          "type": "uint256"
        }
      ],
      "stateMutability": "nonpayable",
      "type": "function"
    },
    {
      "inputs": [],
      "name": "name",
      "outputs": [
        {
          "internalType": "string",
          "name": "",
          "type": "string"
        }
      ],
      "stateMutability": "view",
      "type": "function"
    },
    {
      "inputs": [
        {
          "internalType": "uint256",
          "name": "tokenId",
          "type": "uint256"
        }
      ],
      "name": "ownerOf",
      "outputs": [
        {
          "internalType": "address",
          "name": "",
          "type": "address"
        }
      ],
      "stateMutability": "view",
      "type": "function"
    },
    {
      "inputs": [
        {
          "internalType": "address",
          "name": "from",
          "type": "address"
        },
        {
          "internalType": "address",
          "name": "to",
          "type": "address"
        },
        {
          "internalType": "uint256",
          "name": "tokenId",
          "type": "uint256"
        }
      ],
      "name": "safeTransferFrom",
      "outputs": [],
      "stateMutability": "nonpayable",
      "type": "function"
    },
    {
      "inputs": [
        {
          "internalType": "address",
          "name": "from",
          "type": "address"
        },
        {
          "internalType": "address",
          "name": "to",
          "type": "address"
        },
        {
          "internalType": "uint256",
          "name": "tokenId",
          "type": "uint256"
        },
        {
          "internalType": "bytes",
          "name": "data",
          "type": "bytes"
        }
      ],
      "name": "safeTransferFrom",
      "outputs": [],
      "stateMutability": "nonpayable",
      "type": "function"
    },
    {
      "inputs": [
        {
          "internalType": "address",
          "name": "operator",
          "type": "address"
        },
        {
          "internalType": "bool",
          "name": "approved",
          "type": "bool"
        }
      ],
      "name": "setApprovalForAll",
      "outputs": [],
      "stateMutability": "nonpayable",
      "type": "function"
    },
    {
      "inputs": [
        {
          "internalType": "bytes4",
          "name": "interfaceId",
          "type": "bytes4"
        }
      ],
      "name": "supportsInterface",
      "outputs": [
        {
          "internalType": "bool",
          "name": "",
          "type": "bool"
        }
      ],
      "stateMutability": "view",
      "type": "function"
    },
    {
      "inputs": [],
      "name": "symbol",
      "outputs": [
        {
          "internalType": "string",
          "name": "",
          "type": "string"
        }
      ],
      "stateMutability": "view",
      "type": "function"
    },
    {
      "inputs": [
        {
          "internalType": "uint256",
          "name": "tokenId",
          "type": "uint256"
        }
      ],
      "name": "tokenURI",
      "outputs": [
        {
          "internalType": "string",
          "name": "",
          "type": "string"
        }
      ],
      "stateMutability": "view",
      "type": "function"
    },
    {
      "inputs": [
        {
          "internalType": "address",
          "name": "from",
          "type": "address"
        },
        {
          "internalType": "address",
          "name": "to",
          "type": "address"
        },
        {
          "internalType": "uint256",
          "name": "tokenId",
          "type": "uint256"
        }
      ],
      "name": "transferFrom",
      "outputs": [],
      "stateMutability": "nonpayable",
      "type": "function"
    },
    {
      "inputs": [
        {
          "internalType": "uint256",
          "name": "tokenId",
          "type": "uint256"
        }
      ],
      "name": "unlistToken",
      "outputs": [
        {
          "internalType": "bool",
          "name": "",
          "type": "bool"
        }
      ],
      "stateMutability": "nonpayable",
      "type": "function"
    },
    {
      "inputs": [
        {
          "internalType": "uint256",
          "name": "_listingPrice",
          "type": "uint256"
        }
      ],
      "name": "updateListingPrice",
      "outputs": [],
      "stateMutability": "payable",
      "type": "function"
    }
  ],
  "bytecode": "0x60806040526611c37937e080006009553480156200001c57600080fd5b506040518060400160405280600a81526020017f4b756e20546f6b656e73000000000000000000000000000000000000000000008152506040518060400160405280600381526020017f4b756e000000000000000000000000000000000000000000000000000000000081525081600090816200009a919062000370565b508060019081620000ac919062000370565b50505033600a60006101000a81548173ffffffffffffffffffffffffffffffffffffffff021916908373ffffffffffffffffffffffffffffffffffffffff16021790555062000457565b600081519050919050565b7f4e487b7100000000000000000000000000000000000000000000000000000000600052604160045260246000fd5b7f4e487b7100000000000000000000000000000000000000000000000000000000600052602260045260246000fd5b600060028204905060018216806200017857607f821691505b6020821081036200018e576200018d62000130565b5b50919050565b60008190508160005260206000209050919050565b60006020601f8301049050919050565b600082821b905092915050565b600060088302620001f87fffffffffffffffffffffffffffffffffffffffffffffffffffffffffffffffff82620001b9565b620002048683620001b9565b95508019841693508086168417925050509392505050565b6000819050919050565b6000819050919050565b6000620002516200024b62000245846200021c565b62000226565b6200021c565b9050919050565b6000819050919050565b6200026d8362000230565b620002856200027c8262000258565b848454620001c6565b825550505050565b600090565b6200029c6200028d565b620002a981848462000262565b505050565b5b81811015620002d157620002c560008262000292565b600181019050620002af565b5050565b601f8211156200032057620002ea8162000194565b620002f584620001a9565b8101602085101562000305578190505b6200031d6200031485620001a9565b830182620002ae565b50505b505050565b600082821c905092915050565b6000620003456000198460080262000325565b1980831691505092915050565b600062000360838362000332565b9150826002028217905092915050565b6200037b82620000f6565b67ffffffffffffffff81111562000397576200039662000101565b5b620003a382546200015f565b620003b0828285620002d5565b600060209050601f831160018114620003e85760008415620003d3578287015190505b620003df858262000352565b8655506200044f565b601f198416620003f88662000194565b60005b828110156200042257848901518255600182019150602085019450602081019050620003fb565b868310156200044257848901516200043e601f89168262000332565b8355505b6001600288020188555050505b505050505050565b61450b80620004676000396000f3fe6080604052600436106101355760003560e01c806370a08231116100ab578063ae677aa31161006f578063ae677aa314610453578063b3de019c1461046f578063b88d4fde146104ac578063be9af536146104d5578063c87b56dd146104f1578063e985e9c51461052e57610135565b806370a082311461035557806375c1631d1461039257806395d89b41146103c2578063a22cb465146103ed578063ad3a358c1461041657610135565b806312e85585116100fd57806312e855851461023357806323b872dd1461025e57806333eba49a1461028757806342842e0e146102c457806345f8fa80146102ed5780636352211e1461031857610135565b806301ffc9a71461013a57806306fdde0314610177578063081812fc146101a2578063095ea7b3146101df5780630f08efe014610208575b600080fd5b34801561014657600080fd5b50610161600480360381019061015c9190612ccf565b61056b565b60405161016e9190612d17565b60405180910390f35b34801561018357600080fd5b5061018c61064d565b6040516101999190612dc2565b60405180910390f35b3480156101ae57600080fd5b506101c960048036038101906101c49190612e1a565b6106df565b6040516101d69190612e88565b60405180910390f35b3480156101eb57600080fd5b5061020660048036038101906102019190612ecf565b610725565b005b34801561021457600080fd5b5061021d61083c565b60405161022a9190613065565b60405180910390f35b34801561023f57600080fd5b50610248610a90565b6040516102559190613096565b60405180910390f35b34801561026a57600080fd5b50610285600480360381019061028091906130b1565b610a9a565b005b34801561029357600080fd5b506102ae60048036038101906102a99190613239565b610afa565b6040516102bb9190613096565b60405180910390f35b3480156102d057600080fd5b506102eb60048036038101906102e691906130b1565b610b31565b005b3480156102f957600080fd5b50610302610b51565b60405161030f9190613065565b60405180910390f35b34801561032457600080fd5b5061033f600480360381019061033a9190612e1a565b610e3d565b60405161034c9190612e88565b60405180910390f35b34801561036157600080fd5b5061037c60048036038101906103779190613282565b610ec3565b6040516103899190613096565b60405180910390f35b6103ac60048036038101906103a791906132af565b610f7a565b6040516103b99190612d17565b60405180910390f35b3480156103ce57600080fd5b506103d7611006565b6040516103e49190612dc2565b60405180910390f35b3480156103f957600080fd5b50610414600480360381019061040f919061331b565b611098565b005b34801561042257600080fd5b5061043d60048036038101906104389190612e1a565b6110ae565b60405161044a9190612d17565b60405180910390f35b61046d60048036038101906104689190612e1a565b61132b565b005b34801561047b57600080fd5b50610496600480360381019061049191906132af565b6113fe565b6040516104a39190612d17565b60405180910390f35b3480156104b857600080fd5b506104d360048036038101906104ce91906133fc565b61159b565b005b6104ef60048036038101906104ea9190612e1a565b6115fd565b005b3480156104fd57600080fd5b5061051860048036038101906105139190612e1a565b611876565b6040516105259190612dc2565b60405180910390f35b34801561053a57600080fd5b506105556004803603810190610550919061347f565b611988565b6040516105629190612d17565b60405180910390f35b60007f80ac58cd000000000000000000000000000000000000000000000000000000007bffffffffffffffffffffffffffffffffffffffffffffffffffffffff1916827bffffffffffffffffffffffffffffffffffffffffffffffffffffffff1916148061063657507f5b5e139f000000000000000000000000000000000000000000000000000000007bffffffffffffffffffffffffffffffffffffffffffffffffffffffff1916827bffffffffffffffffffffffffffffffffffffffffffffffffffffffff1916145b80610646575061064582611a1c565b5b9050919050565b60606000805461065c906134ee565b80601f0160208091040260200160405190810160405280929190818152602001828054610688906134ee565b80156106d55780601f106106aa576101008083540402835291602001916106d5565b820191906000526020600020905b8154815290600101906020018083116106b857829003601f168201915b5050505050905090565b60006106ea82611a86565b6004600083815260200190815260200160002060009054906101000a900473ffffffffffffffffffffffffffffffffffffffff169050919050565b600061073082610e3d565b90508073ffffffffffffffffffffffffffffffffffffffff168373ffffffffffffffffffffffffffffffffffffffff16036107a0576040517f08c379a000000000000000000000000000000000000000000000000000000000815260040161079790613591565b60405180910390fd5b8073ffffffffffffffffffffffffffffffffffffffff166107bf611ad1565b73ffffffffffffffffffffffffffffffffffffffff1614806107ee57506107ed816107e8611ad1565b611988565b5b61082d576040517f08c379a000000000000000000000000000000000000000000000000000000000815260040161082490613623565b60405180910390fd5b6108378383611ad9565b505050565b6060600061084a6007611b92565b905060006108586008611b92565b90506000808267ffffffffffffffff8111156108775761087661310e565b5b6040519080825280602002602001820160405280156108b057816020015b61089d612c06565b8152602001906001900390816108955790505b50905060005b84811015610a85573073ffffffffffffffffffffffffffffffffffffffff16600b60006001846108e69190613672565b815260200190815260200160002060020160009054906101000a900473ffffffffffffffffffffffffffffffffffffffff1673ffffffffffffffffffffffffffffffffffffffff1603610a725760006001826109429190613672565b90506000600b60008381526020019081526020016000209050806040518060a0016040529081600082015481526020016001820160009054906101000a900473ffffffffffffffffffffffffffffffffffffffff1673ffffffffffffffffffffffffffffffffffffffff1673ffffffffffffffffffffffffffffffffffffffff1681526020016002820160009054906101000a900473ffffffffffffffffffffffffffffffffffffffff1673ffffffffffffffffffffffffffffffffffffffff1673ffffffffffffffffffffffffffffffffffffffff168152602001600382015481526020016004820160009054906101000a900460ff161515151581525050848681518110610a5557610a546136a6565b5b6020026020010181905250600185610a6d9190613672565b945050505b8080610a7d906136d5565b9150506108b6565b508094505050505090565b6000600954905090565b610aab610aa5611ad1565b82611ba0565b610aea576040517f08c379a0000000000000000000000000000000000000000000000000000000008152600401610ae19061378f565b60405180910390fd5b610af5838383611c35565b505050565b6000610b066007611f2e565b6000610b126007611b92565b9050610b1e3382611f44565b610b288184612161565b80915050919050565b610b4c8383836040518060200160405280600081525061159b565b505050565b60606000610b5f6007611b92565b905060008060005b83811015610c07573373ffffffffffffffffffffffffffffffffffffffff16600b6000600184610b979190613672565b815260200190815260200160002060010160009054906101000a900473ffffffffffffffffffffffffffffffffffffffff1673ffffffffffffffffffffffffffffffffffffffff1603610bf457600183610bf19190613672565b92505b8080610bff906136d5565b915050610b67565b5060008267ffffffffffffffff811115610c2457610c2361310e565b5b604051908082528060200260200182016040528015610c5d57816020015b610c4a612c06565b815260200190600190039081610c425790505b50905060005b84811015610e32573373ffffffffffffffffffffffffffffffffffffffff16600b6000600184610c939190613672565b815260200190815260200160002060010160009054906101000a900473ffffffffffffffffffffffffffffffffffffffff1673ffffffffffffffffffffffffffffffffffffffff1603610e1f576000600182610cef9190613672565b90506000600b60008381526020019081526020016000209050806040518060a0016040529081600082015481526020016001820160009054906101000a900473ffffffffffffffffffffffffffffffffffffffff1673ffffffffffffffffffffffffffffffffffffffff1673ffffffffffffffffffffffffffffffffffffffff1681526020016002820160009054906101000a900473ffffffffffffffffffffffffffffffffffffffff1673ffffffffffffffffffffffffffffffffffffffff1673ffffffffffffffffffffffffffffffffffffffff168152602001600382015481526020016004820160009054906101000a900460ff161515151581525050848681518110610e0257610e016136a6565b5b6020026020010181905250600185610e1a9190613672565b945050505b8080610e2a906136d5565b915050610c63565b508094505050505090565b600080610e49836121ce565b9050600073ffffffffffffffffffffffffffffffffffffffff168173ffffffffffffffffffffffffffffffffffffffff1603610eba576040517f08c379a0000000000000000000000000000000000000000000000000000000008152600401610eb1906137fb565b60405180910390fd5b80915050919050565b60008073ffffffffffffffffffffffffffffffffffffffff168273ffffffffffffffffffffffffffffffffffffffff1603610f33576040517f08c379a0000000000000000000000000000000000000000000000000000000008152600401610f2a9061388d565b60405180910390fd5b600360008373ffffffffffffffffffffffffffffffffffffffff1673ffffffffffffffffffffffffffffffffffffffff168152602001908152602001600020549050919050565b60003373ffffffffffffffffffffffffffffffffffffffff16610f9c846121ce565b73ffffffffffffffffffffffffffffffffffffffff1614610ff2576040517f08c379a0000000000000000000000000000000000000000000000000000000008152600401610fe9906138f9565b60405180910390fd5b610ffc838361220b565b6001905092915050565b606060018054611015906134ee565b80601f0160208091040260200160405190810160405280929190818152602001828054611041906134ee565b801561108e5780601f106110635761010080835404028352916020019161108e565b820191906000526020600020905b81548152906001019060200180831161107157829003601f168201915b5050505050905090565b6110aa6110a3611ad1565b838361254b565b5050565b60003373ffffffffffffffffffffffffffffffffffffffff16600b600084815260200190815260200160002060010160009054906101000a900473ffffffffffffffffffffffffffffffffffffffff1673ffffffffffffffffffffffffffffffffffffffff1614611154576040517f08c379a000000000000000000000000000000000000000000000000000000000815260040161114b90613965565b60405180910390fd5b3073ffffffffffffffffffffffffffffffffffffffff16600b600084815260200190815260200160002060020160009054906101000a900473ffffffffffffffffffffffffffffffffffffffff1673ffffffffffffffffffffffffffffffffffffffff16146111f8576040517f08c379a00000000000000000000000000000000000000000000000000000000081526004016111ef906139d1565b60405180910390fd5b6001600b600084815260200190815260200160002060040160006101000a81548160ff02191690831515021790555061123160086126b7565b6000600b600084815260200190815260200160002060010160006101000a81548173ffffffffffffffffffffffffffffffffffffffff021916908373ffffffffffffffffffffffffffffffffffffffff16021790555033600b600084815260200190815260200160002060020160006101000a81548173ffffffffffffffffffffffffffffffffffffffff021916908373ffffffffffffffffffffffffffffffffffffffff1602179055506112e7303384611c35565b817fa15598841824c85dd074a24da4fa7a415025c25a10d69466c3e86598e55fb65560003360405161131a9291906139f1565b60405180910390a260019050919050565b3373ffffffffffffffffffffffffffffffffffffffff16600a60009054906101000a900473ffffffffffffffffffffffffffffffffffffffff1673ffffffffffffffffffffffffffffffffffffffff16146113bb576040517f08c379a00000000000000000000000000000000000000000000000000000000081526004016113b290613a8c565b60405180910390fd5b806009819055507f661c8d2e494b21e778d6b19ffb42ca00ee63062be7f9eb28af0850e01a9cf2146009546040516113f39190613096565b60405180910390a150565b60003373ffffffffffffffffffffffffffffffffffffffff16600b600085815260200190815260200160002060010160009054906101000a900473ffffffffffffffffffffffffffffffffffffffff1673ffffffffffffffffffffffffffffffffffffffff16146114a4576040517f08c379a000000000000000000000000000000000000000000000000000000000815260040161149b90613af8565b60405180910390fd5b3073ffffffffffffffffffffffffffffffffffffffff16600b600085815260200190815260200160002060020160009054906101000a900473ffffffffffffffffffffffffffffffffffffffff1673ffffffffffffffffffffffffffffffffffffffff1614611548576040517f08c379a000000000000000000000000000000000000000000000000000000000815260040161153f906139d1565b60405180910390fd5b81600b60008581526020019081526020016000206003018190555081837f8aa4fa52648a6d15edce8a179c792c86f3719d0cc3c572cf90f91948f0f2cb6860405160405180910390a36001905092915050565b6115ac6115a6611ad1565b83611ba0565b6115eb576040517f08c379a00000000000000000000000000000000000000000000000000000000081526004016115e29061378f565b60405180910390fd5b6115f784848484612713565b50505050565b6000600b60008381526020019081526020016000206003015490506000600b600084815260200190815260200160002060010160009054906101000a900473ffffffffffffffffffffffffffffffffffffffff169050813414611695576040517f08c379a000000000000000000000000000000000000000000000000000000000815260040161168c90613b8a565b60405180910390fd5b33600b600085815260200190815260200160002060020160006101000a81548173ffffffffffffffffffffffffffffffffffffffff021916908373ffffffffffffffffffffffffffffffffffffffff1602179055506001600b600085815260200190815260200160002060040160006101000a81548160ff0219169083151502179055506000600b600085815260200190815260200160002060010160006101000a81548173ffffffffffffffffffffffffffffffffffffffff021916908373ffffffffffffffffffffffffffffffffffffffff16021790555061177960086126b7565b611784303385611c35565b600a60009054906101000a900473ffffffffffffffffffffffffffffffffffffffff1673ffffffffffffffffffffffffffffffffffffffff166108fc6009549081150290604051600060405180830381858888f193505050501580156117ee573d6000803e3d6000fd5b508073ffffffffffffffffffffffffffffffffffffffff166108fc349081150290604051600060405180830381858888f19350505050158015611835573d6000803e3d6000fd5b50827f39305df1e01a8efc02b583f32f465b5de19be261bbc83b3d8c37f3686c8af6be6000336040516118699291906139f1565b60405180910390a2505050565b606061188182611a86565b60006006600084815260200190815260200160002080546118a1906134ee565b80601f01602080910402602001604051908101604052809291908181526020018280546118cd906134ee565b801561191a5780601f106118ef5761010080835404028352916020019161191a565b820191906000526020600020905b8154815290600101906020018083116118fd57829003601f168201915b50505050509050600061192b61276f565b90506000815103611940578192505050611983565b60008251111561197557808260405160200161195d929190613be6565b60405160208183030381529060405292505050611983565b61197e84612786565b925050505b919050565b6000600560008473ffffffffffffffffffffffffffffffffffffffff1673ffffffffffffffffffffffffffffffffffffffff16815260200190815260200160002060008373ffffffffffffffffffffffffffffffffffffffff1673ffffffffffffffffffffffffffffffffffffffff16815260200190815260200160002060009054906101000a900460ff16905092915050565b60007f01ffc9a7000000000000000000000000000000000000000000000000000000007bffffffffffffffffffffffffffffffffffffffffffffffffffffffff1916827bffffffffffffffffffffffffffffffffffffffffffffffffffffffff1916149050919050565b611a8f816127ee565b611ace576040517f08c379a0000000000000000000000000000000000000000000000000000000008152600401611ac5906137fb565b60405180910390fd5b50565b600033905090565b816004600083815260200190815260200160002060006101000a81548173ffffffffffffffffffffffffffffffffffffffff021916908373ffffffffffffffffffffffffffffffffffffffff160217905550808273ffffffffffffffffffffffffffffffffffffffff16611b4c83610e3d565b73ffffffffffffffffffffffffffffffffffffffff167f8c5be1e5ebec7d5bd14f71427d1e84f3dd0314c0f7b2291e5b200ac8c7c3b92560405160405180910390a45050565b600081600001549050919050565b600080611bac83610e3d565b90508073ffffffffffffffffffffffffffffffffffffffff168473ffffffffffffffffffffffffffffffffffffffff161480611bee5750611bed8185611988565b5b80611c2c57508373ffffffffffffffffffffffffffffffffffffffff16611c14846106df565b73ffffffffffffffffffffffffffffffffffffffff16145b91505092915050565b8273ffffffffffffffffffffffffffffffffffffffff16611c5582610e3d565b73ffffffffffffffffffffffffffffffffffffffff1614611cab576040517f08c379a0000000000000000000000000000000000000000000000000000000008152600401611ca290613c7c565b60405180910390fd5b600073ffffffffffffffffffffffffffffffffffffffff168273ffffffffffffffffffffffffffffffffffffffff1603611d1a576040517f08c379a0000000000000000000000000000000000000000000000000000000008152600401611d1190613d0e565b60405180910390fd5b611d27838383600161282f565b8273ffffffffffffffffffffffffffffffffffffffff16611d4782610e3d565b73ffffffffffffffffffffffffffffffffffffffff1614611d9d576040517f08c379a0000000000000000000000000000000000000000000000000000000008152600401611d9490613c7c565b60405180910390fd5b6004600082815260200190815260200160002060006101000a81549073ffffffffffffffffffffffffffffffffffffffff02191690556001600360008573ffffffffffffffffffffffffffffffffffffffff1673ffffffffffffffffffffffffffffffffffffffff168152602001908152602001600020600082825403925050819055506001600360008473ffffffffffffffffffffffffffffffffffffffff1673ffffffffffffffffffffffffffffffffffffffff16815260200190815260200160002060008282540192505081905550816002600083815260200190815260200160002060006101000a81548173ffffffffffffffffffffffffffffffffffffffff021916908373ffffffffffffffffffffffffffffffffffffffff160217905550808273ffffffffffffffffffffffffffffffffffffffff168473ffffffffffffffffffffffffffffffffffffffff167fddf252ad1be2c89b69c2b068fc378daa952ba7f163c4a11628f55a4df523b3ef60405160405180910390a4611f298383836001612835565b505050565b6001816000016000828254019250508190555050565b600073ffffffffffffffffffffffffffffffffffffffff168273ffffffffffffffffffffffffffffffffffffffff1603611fb3576040517f08c379a0000000000000000000000000000000000000000000000000000000008152600401611faa90613d7a565b60405180910390fd5b611fbc816127ee565b15611ffc576040517f08c379a0000000000000000000000000000000000000000000000000000000008152600401611ff390613de6565b60405180910390fd5b61200a60008383600161282f565b612013816127ee565b15612053576040517f08c379a000000000000000000000000000000000000000000000000000000000815260040161204a90613de6565b60405180910390fd5b6001600360008473ffffffffffffffffffffffffffffffffffffffff1673ffffffffffffffffffffffffffffffffffffffff16815260200190815260200160002060008282540192505081905550816002600083815260200190815260200160002060006101000a81548173ffffffffffffffffffffffffffffffffffffffff021916908373ffffffffffffffffffffffffffffffffffffffff160217905550808273ffffffffffffffffffffffffffffffffffffffff16600073ffffffffffffffffffffffffffffffffffffffff167fddf252ad1be2c89b69c2b068fc378daa952ba7f163c4a11628f55a4df523b3ef60405160405180910390a461215d600083836001612835565b5050565b61216a826127ee565b6121a9576040517f08c379a00000000000000000000000000000000000000000000000000000000081526004016121a090613e78565b60405180910390fd5b806006600084815260200190815260200160002090816121c99190614044565b505050565b60006002600083815260200190815260200160002060009054906101000a900473ffffffffffffffffffffffffffffffffffffffff169050919050565b6000811161224e576040517f08c379a000000000000000000000000000000000000000000000000000000000815260040161224590614162565b60405180910390fd5b6009543414612292576040517f08c379a0000000000000000000000000000000000000000000000000000000008152600401612289906141f4565b60405180910390fd5b60011515600b600084815260200190815260200160002060040160009054906101000a900460ff161515036123c4576000600b600084815260200190815260200160002060040160006101000a81548160ff02191690831515021790555080600b60008481526020019081526020016000206003018190555033600b600084815260200190815260200160002060010160006101000a81548173ffffffffffffffffffffffffffffffffffffffff021916908373ffffffffffffffffffffffffffffffffffffffff16021790555030600b600084815260200190815260200160002060020160006101000a81548173ffffffffffffffffffffffffffffffffffffffff021916908373ffffffffffffffffffffffffffffffffffffffff1602179055506123bf6008611f2e565b6124fd565b6040518060a001604052808381526020013373ffffffffffffffffffffffffffffffffffffffff1681526020013073ffffffffffffffffffffffffffffffffffffffff16815260200182815260200160001515815250600b60008481526020019081526020016000206000820151816000015560208201518160010160006101000a81548173ffffffffffffffffffffffffffffffffffffffff021916908373ffffffffffffffffffffffffffffffffffffffff16021790555060408201518160020160006101000a81548173ffffffffffffffffffffffffffffffffffffffff021916908373ffffffffffffffffffffffffffffffffffffffff1602179055506060820151816003015560808201518160040160006101000a81548160ff0219169083151502179055509050506124fc6008611f2e565b5b612508333084611c35565b817fb640004f1d14576d0c209e240cad0410e0d8c0c33a09375861fbadae2588a98d333084600060405161253f9493929190614214565b60405180910390a25050565b8173ffffffffffffffffffffffffffffffffffffffff168373ffffffffffffffffffffffffffffffffffffffff16036125b9576040517f08c379a00000000000000000000000000000000000000000000000000000000081526004016125b0906142a5565b60405180910390fd5b80600560008573ffffffffffffffffffffffffffffffffffffffff1673ffffffffffffffffffffffffffffffffffffffff16815260200190815260200160002060008473ffffffffffffffffffffffffffffffffffffffff1673ffffffffffffffffffffffffffffffffffffffff16815260200190815260200160002060006101000a81548160ff0219169083151502179055508173ffffffffffffffffffffffffffffffffffffffff168373ffffffffffffffffffffffffffffffffffffffff167f17307eab39ab6107e8899845ad3d59bd9653f200f220920489ca2b5937696c31836040516126aa9190612d17565b60405180910390a3505050565b60008160000154905060008111612703576040517f08c379a00000000000000000000000000000000000000000000000000000000081526004016126fa90614311565b60405180910390fd5b6001810382600001819055505050565b61271e848484611c35565b61272a8484848461283b565b612769576040517f08c379a0000000000000000000000000000000000000000000000000000000008152600401612760906143a3565b60405180910390fd5b50505050565b606060405180602001604052806000815250905090565b606061279182611a86565b600061279b61276f565b905060008151116127bb57604051806020016040528060008152506127e6565b806127c5846129c2565b6040516020016127d6929190613be6565b6040516020818303038152906040525b915050919050565b60008073ffffffffffffffffffffffffffffffffffffffff16612810836121ce565b73ffffffffffffffffffffffffffffffffffffffff1614159050919050565b50505050565b50505050565b600061285c8473ffffffffffffffffffffffffffffffffffffffff16612a90565b156129b5578373ffffffffffffffffffffffffffffffffffffffff1663150b7a02612885611ad1565b8786866040518563ffffffff1660e01b81526004016128a79493929190614418565b6020604051808303816000875af19250505080156128e357506040513d601f19601f820116820180604052508101906128e09190614479565b60015b612965573d8060008114612913576040519150601f19603f3d011682016040523d82523d6000602084013e612918565b606091505b50600081510361295d576040517f08c379a0000000000000000000000000000000000000000000000000000000008152600401612954906143a3565b60405180910390fd5b805181602001fd5b63150b7a0260e01b7bffffffffffffffffffffffffffffffffffffffffffffffffffffffff1916817bffffffffffffffffffffffffffffffffffffffffffffffffffffffff1916149150506129ba565b600190505b949350505050565b6060600060016129d184612ab3565b01905060008167ffffffffffffffff8111156129f0576129ef61310e565b5b6040519080825280601f01601f191660200182016040528015612a225781602001600182028036833780820191505090505b509050600082602001820190505b600115612a85578080600190039150507f3031323334353637383961626364656600000000000000000000000000000000600a86061a8153600a8581612a7957612a786144a6565b5b04945060008503612a30575b819350505050919050565b6000808273ffffffffffffffffffffffffffffffffffffffff163b119050919050565b600080600090507a184f03e93ff9f4daa797ed6e38ed64bf6a1f0100000000000000008310612b11577a184f03e93ff9f4daa797ed6e38ed64bf6a1f0100000000000000008381612b0757612b066144a6565b5b0492506040810190505b6d04ee2d6d415b85acef81000000008310612b4e576d04ee2d6d415b85acef81000000008381612b4457612b436144a6565b5b0492506020810190505b662386f26fc100008310612b7d57662386f26fc100008381612b7357612b726144a6565b5b0492506010810190505b6305f5e1008310612ba6576305f5e1008381612b9c57612b9b6144a6565b5b0492506008810190505b6127108310612bcb576127108381612bc157612bc06144a6565b5b0492506004810190505b60648310612bee5760648381612be457612be36144a6565b5b0492506002810190505b600a8310612bfd576001810190505b80915050919050565b6040518060a0016040528060008152602001600073ffffffffffffffffffffffffffffffffffffffff168152602001600073ffffffffffffffffffffffffffffffffffffffff168152602001600081526020016000151581525090565b6000604051905090565b600080fd5b600080fd5b60007fffffffff0000000000000000000000000000000000000000000000000000000082169050919050565b612cac81612c77565b8114612cb757600080fd5b50565b600081359050612cc981612ca3565b92915050565b600060208284031215612ce557612ce4612c6d565b5b6000612cf384828501612cba565b91505092915050565b60008115159050919050565b612d1181612cfc565b82525050565b6000602082019050612d2c6000830184612d08565b92915050565b600081519050919050565b600082825260208201905092915050565b60005b83811015612d6c578082015181840152602081019050612d51565b60008484015250505050565b6000601f19601f8301169050919050565b6000612d9482612d32565b612d9e8185612d3d565b9350612dae818560208601612d4e565b612db781612d78565b840191505092915050565b60006020820190508181036000830152612ddc8184612d89565b905092915050565b6000819050919050565b612df781612de4565b8114612e0257600080fd5b50565b600081359050612e1481612dee565b92915050565b600060208284031215612e3057612e2f612c6d565b5b6000612e3e84828501612e05565b91505092915050565b600073ffffffffffffffffffffffffffffffffffffffff82169050919050565b6000612e7282612e47565b9050919050565b612e8281612e67565b82525050565b6000602082019050612e9d6000830184612e79565b92915050565b612eac81612e67565b8114612eb757600080fd5b50565b600081359050612ec981612ea3565b92915050565b60008060408385031215612ee657612ee5612c6d565b5b6000612ef485828601612eba565b9250506020612f0585828601612e05565b9150509250929050565b600081519050919050565b600082825260208201905092915050565b6000819050602082019050919050565b612f4481612de4565b82525050565b6000612f5582612e47565b9050919050565b612f6581612f4a565b82525050565b612f7481612cfc565b82525050565b60a082016000820151612f906000850182612f3b565b506020820151612fa36020850182612f5c565b506040820151612fb66040850182612f5c565b506060820151612fc96060850182612f3b565b506080820151612fdc6080850182612f6b565b50505050565b6000612fee8383612f7a565b60a08301905092915050565b6000602082019050919050565b600061301282612f0f565b61301c8185612f1a565b935061302783612f2b565b8060005b8381101561305857815161303f8882612fe2565b975061304a83612ffa565b92505060018101905061302b565b5085935050505092915050565b6000602082019050818103600083015261307f8184613007565b905092915050565b61309081612de4565b82525050565b60006020820190506130ab6000830184613087565b92915050565b6000806000606084860312156130ca576130c9612c6d565b5b60006130d886828701612eba565b93505060206130e986828701612eba565b92505060406130fa86828701612e05565b9150509250925092565b600080fd5b600080fd5b7f4e487b7100000000000000000000000000000000000000000000000000000000600052604160045260246000fd5b61314682612d78565b810181811067ffffffffffffffff821117156131655761316461310e565b5b80604052505050565b6000613178612c63565b9050613184828261313d565b919050565b600067ffffffffffffffff8211156131a4576131a361310e565b5b6131ad82612d78565b9050602081019050919050565b82818337600083830152505050565b60006131dc6131d784613189565b61316e565b9050828152602081018484840111156131f8576131f7613109565b5b6132038482856131ba565b509392505050565b600082601f8301126132205761321f613104565b5b81356132308482602086016131c9565b91505092915050565b60006020828403121561324f5761324e612c6d565b5b600082013567ffffffffffffffff81111561326d5761326c612c72565b5b6132798482850161320b565b91505092915050565b60006020828403121561329857613297612c6d565b5b60006132a684828501612eba565b91505092915050565b600080604083850312156132c6576132c5612c6d565b5b60006132d485828601612e05565b92505060206132e585828601612e05565b9150509250929050565b6132f881612cfc565b811461330357600080fd5b50565b600081359050613315816132ef565b92915050565b6000806040838503121561333257613331612c6d565b5b600061334085828601612eba565b925050602061335185828601613306565b9150509250929050565b600067ffffffffffffffff8211156133765761337561310e565b5b61337f82612d78565b9050602081019050919050565b600061339f61339a8461335b565b61316e565b9050828152602081018484840111156133bb576133ba613109565b5b6133c68482856131ba565b509392505050565b600082601f8301126133e3576133e2613104565b5b81356133f384826020860161338c565b91505092915050565b6000806000806080858703121561341657613415612c6d565b5b600061342487828801612eba565b945050602061343587828801612eba565b935050604061344687828801612e05565b925050606085013567ffffffffffffffff81111561346757613466612c72565b5b613473878288016133ce565b91505092959194509250565b6000806040838503121561349657613495612c6d565b5b60006134a485828601612eba565b92505060206134b585828601612eba565b9150509250929050565b7f4e487b7100000000000000000000000000000000000000000000000000000000600052602260045260246000fd5b6000600282049050600182168061350657607f821691505b602082108103613519576135186134bf565b5b50919050565b7f4552433732313a20617070726f76616c20746f2063757272656e74206f776e6560008201527f7200000000000000000000000000000000000000000000000000000000000000602082015250565b600061357b602183612d3d565b91506135868261351f565b604082019050919050565b600060208201905081810360008301526135aa8161356e565b9050919050565b7f4552433732313a20617070726f76652063616c6c6572206973206e6f7420746f60008201527f6b656e206f776e6572206f7220617070726f76656420666f7220616c6c000000602082015250565b600061360d603d83612d3d565b9150613618826135b1565b604082019050919050565b6000602082019050818103600083015261363c81613600565b9050919050565b7f4e487b7100000000000000000000000000000000000000000000000000000000600052601160045260246000fd5b600061367d82612de4565b915061368883612de4565b92508282019050808211156136a05761369f613643565b5b92915050565b7f4e487b7100000000000000000000000000000000000000000000000000000000600052603260045260246000fd5b60006136e082612de4565b91507fffffffffffffffffffffffffffffffffffffffffffffffffffffffffffffffff820361371257613711613643565b5b600182019050919050565b7f4552433732313a2063616c6c6572206973206e6f7420746f6b656e206f776e6560008201527f72206f7220617070726f76656400000000000000000000000000000000000000602082015250565b6000613779602d83612d3d565b91506137848261371d565b604082019050919050565b600060208201905081810360008301526137a88161376c565b9050919050565b7f4552433732313a20696e76616c696420746f6b656e2049440000000000000000600082015250565b60006137e5601883612d3d565b91506137f0826137af565b602082019050919050565b60006020820190508181036000830152613814816137d8565b9050919050565b7f4552433732313a2061646472657373207a65726f206973206e6f74206120766160008201527f6c6964206f776e65720000000000000000000000000000000000000000000000602082015250565b6000613877602983612d3d565b91506138828261381b565b604082019050919050565b600060208201905081810360008301526138a68161386a565b9050919050565b7f4e6f74206f776e65720000000000000000000000000000000000000000000000600082015250565b60006138e3600983612d3d565b91506138ee826138ad565b602082019050919050565b60006020820190508181036000830152613912816138d6565b9050919050565b7f4e6f7473656c6c65720000000000000000000000000000000000000000000000600082015250565b600061394f600983612d3d565b915061395a82613919565b602082019050919050565b6000602082019050818103600083015261397e81613942565b9050919050565b7f4e6f74206f6e206c697374000000000000000000000000000000000000000000600082015250565b60006139bb600b83612d3d565b91506139c682613985565b602082019050919050565b600060208201905081810360008301526139ea816139ae565b9050919050565b6000604082019050613a066000830185612e79565b613a136020830184612e79565b9392505050565b7f4f6e6c79206d61726b6574706c616365206f776e65722063616e20757064617460008201527f65206c697374696e672070726963652e00000000000000000000000000000000602082015250565b6000613a76603083612d3d565b9150613a8182613a1a565b604082019050919050565b60006020820190508181036000830152613aa581613a69565b9050919050565b7f4e6f742073656c6c657200000000000000000000000000000000000000000000600082015250565b6000613ae2600a83612d3d565b9150613aed82613aac565b602082019050919050565b60006020820190508181036000830152613b1181613ad5565b9050919050565b7f506c65617365207375626d6974207468652061736b696e67207072696365206960008201527f6e206f7264657220746f20636f6d706c65746520746865207075726368617365602082015250565b6000613b74604083612d3d565b9150613b7f82613b18565b604082019050919050565b60006020820190508181036000830152613ba381613b67565b9050919050565b600081905092915050565b6000613bc082612d32565b613bca8185613baa565b9350613bda818560208601612d4e565b80840191505092915050565b6000613bf28285613bb5565b9150613bfe8284613bb5565b91508190509392505050565b7f4552433732313a207472616e736665722066726f6d20696e636f72726563742060008201527f6f776e6572000000000000000000000000000000000000000000000000000000602082015250565b6000613c66602583612d3d565b9150613c7182613c0a565b604082019050919050565b60006020820190508181036000830152613c9581613c59565b9050919050565b7f4552433732313a207472616e7366657220746f20746865207a65726f2061646460008201527f7265737300000000000000000000000000000000000000000000000000000000602082015250565b6000613cf8602483612d3d565b9150613d0382613c9c565b604082019050919050565b60006020820190508181036000830152613d2781613ceb565b9050919050565b7f4552433732313a206d696e7420746f20746865207a65726f2061646472657373600082015250565b6000613d64602083612d3d565b9150613d6f82613d2e565b602082019050919050565b60006020820190508181036000830152613d9381613d57565b9050919050565b7f4552433732313a20746f6b656e20616c7265616479206d696e74656400000000600082015250565b6000613dd0601c83612d3d565b9150613ddb82613d9a565b602082019050919050565b60006020820190508181036000830152613dff81613dc3565b9050919050565b7f45524337323155524953746f726167653a2055524920736574206f66206e6f6e60008201527f6578697374656e7420746f6b656e000000000000000000000000000000000000602082015250565b6000613e62602e83612d3d565b9150613e6d82613e06565b604082019050919050565b60006020820190508181036000830152613e9181613e55565b9050919050565b60008190508160005260206000209050919050565b60006020601f8301049050919050565b600082821b905092915050565b600060088302613efa7fffffffffffffffffffffffffffffffffffffffffffffffffffffffffffffffff82613ebd565b613f048683613ebd565b95508019841693508086168417925050509392505050565b6000819050919050565b6000613f41613f3c613f3784612de4565b613f1c565b612de4565b9050919050565b6000819050919050565b613f5b83613f26565b613f6f613f6782613f48565b848454613eca565b825550505050565b600090565b613f84613f77565b613f8f818484613f52565b505050565b5b81811015613fb357613fa8600082613f7c565b600181019050613f95565b5050565b601f821115613ff857613fc981613e98565b613fd284613ead565b81016020851015613fe1578190505b613ff5613fed85613ead565b830182613f94565b50505b505050565b600082821c905092915050565b600061401b60001984600802613ffd565b1980831691505092915050565b6000614034838361400a565b9150826002028217905092915050565b61404d82612d32565b67ffffffffffffffff8111156140665761406561310e565b5b61407082546134ee565b61407b828285613fb7565b600060209050601f8311600181146140ae576000841561409c578287015190505b6140a68582614028565b86555061410e565b601f1984166140bc86613e98565b60005b828110156140e4578489015182556001820191506020850194506020810190506140bf565b8683101561410157848901516140fd601f89168261400a565b8355505b6001600288020188555050505b505050505050565b7f5072696365206d757374206265206174206c6561737420312077656900000000600082015250565b600061414c601c83612d3d565b915061415782614116565b602082019050919050565b6000602082019050818103600083015261417b8161413f565b9050919050565b7f5072696365206d75737420626520657175616c20746f206c697374696e67207060008201527f7269636500000000000000000000000000000000000000000000000000000000602082015250565b60006141de602483612d3d565b91506141e982614182565b604082019050919050565b6000602082019050818103600083015261420d816141d1565b9050919050565b60006080820190506142296000830187612e79565b6142366020830186612e79565b6142436040830185613087565b6142506060830184612d08565b95945050505050565b7f4552433732313a20617070726f766520746f2063616c6c657200000000000000600082015250565b600061428f601983612d3d565b915061429a82614259565b602082019050919050565b600060208201905081810360008301526142be81614282565b9050919050565b7f436f756e7465723a2064656372656d656e74206f766572666c6f770000000000600082015250565b60006142fb601b83612d3d565b9150614306826142c5565b602082019050919050565b6000602082019050818103600083015261432a816142ee565b9050919050565b7f4552433732313a207472616e7366657220746f206e6f6e20455243373231526560008201527f63656976657220696d706c656d656e7465720000000000000000000000000000602082015250565b600061438d603283612d3d565b915061439882614331565b604082019050919050565b600060208201905081810360008301526143bc81614380565b9050919050565b600081519050919050565b600082825260208201905092915050565b60006143ea826143c3565b6143f481856143ce565b9350614404818560208601612d4e565b61440d81612d78565b840191505092915050565b600060808201905061442d6000830187612e79565b61443a6020830186612e79565b6144476040830185613087565b818103606083015261445981846143df565b905095945050505050565b60008151905061447381612ca3565b92915050565b60006020828403121561448f5761448e612c6d565b5b600061449d84828501614464565b91505092915050565b7f4e487b7100000000000000000000000000000000000000000000000000000000600052601260045260246000fdfea26469706673582212204c224a55ef6f77c50d31011997855bc1df18654a4fc2fad771f8566c62e8ac0464736f6c63430008120033",
  "linkReferences": {},
  "deployedLinkReferences": {}
}